:1000000040C1000059C1000057C1000055C10000A7
:1000100053C1000051C100004FC100004DC100009C
:100020004BC1000049C1000047C1000043C50000AA
:1000300043C1000041C100003FC100003DC10000BC
:100040003BC1000039C1000037C1000035C10000CC
:1000500033C1000031C100002FC100002DC10000DC
:100060002BC1000029C1000027C1000025C10000EC
:1000700023C10000151E0008010015010013010036
:10008000151E000101001501000301001501000308
:100090000100150100030100150100030100150115
:1000A00000080100150100015000150100080100C1
:1000B00015010001010015010001010015010001F9
:1000C00001001501000101001501000801001508DB
:1000D00000080100150400080100150800010100D6
:1000E00015010001010015010008010015070003BA
:1000F00001001501000301001501000001001501B8
:1001000000030100150100030100150100030100B7
:10011000150100030100150100030100150100088D
:100120000100150400130100151E00130100151E27
:1001300000080C00150100090C0015010001010068
:10014000150100081F00150100091600150100091E
:100150000A00150100091800150100082D001501FD
:100160000009130015010009180015010009070016
:10017000150100090A0015010009600015010009B8
:100180001600150100091600150100091A001501D5
:1001900000095F0015010009140015010009100095
:1001A000150100090100150800240350004F004B01
:1001B000004B0045004E00200043004F004E00540D
:1001C0000052004F004C004C004500520000001C43
:1001D0000348004F0052004900200043004F002E0A
:1001E000002C004C00540044002E000000040309C1
:1001F000040902290001010080FA09040000020339
:100200000000000921110100012256000705020328
:1002100040000507058103400005120100020000AF
:1002200000400D0F920000010102000105010905C7
:10023000A10115002501350045017501951005093D
:1002400019012910810205012507463B0175049516
:100250000165140939814265009501810126FF007D
:1002600046FF0009300931093209357508950481C6
:10027000020600FF0920950181020A2126950891B6
:1002800002C011241FBECFEFD2E0DEBFCDBF11E010
:10029000A0E0B1E0EEE0FFE002C005900D92A430D6
:1002A000B107D9F721E0A4E0B1E001C01D92A93265
:1002B000B207E1F79ED129C6A3CE84B7877F84BF5A
:1002C0000FB6F894A89580916000886180936000D3
:1002D000109260000FBEDFC30895089542E360EC02
:1002E00082E01CD342E361EC81E018C30895CF9310
:1002F000DF93EC0198E0FE01292F11922A95E9F78E
:1003000080E88B838C838D838E839A8380910C010C
:1003100090910D0118161906A4F488E0E1E1F1E0CE
:10032000DE0101900D928A95E1F780910C01909188
:100330000D01019790930D0180930C01DF91CF91F6
:10034000089580910E01882369F08130B9F388E027
:10035000FE01A1E1B1E001900D928A95E1F782E002
:1003600090E0E8CF8091080190910901019629F56C
:1003700080910F0190911001009709F46CC02091B9
:100380000401309105018217930709F064C0809140
:10039000000190910101CE9721F481E080930E013C
:1003A000D6CF8DE390E090930901809308018EE30E
:1003B00090E0909301018093000180910801909159
:1003C000090163E070E087D5BC016C587F4F43E0C2
:1003D00050E089E191E090D580911901873009F4CE
:1003E000B4C008F095C0823009F4A7C008F085C0F9
:1003F000882309F4A0C0813009F4A1C080910A01CA
:1004000090910B01019690930B0180930A0120912A
:100410001A0130911B012817390708F098CF8091F5
:1004200008019091090101969093090180930801B8
:1004300010920B0110920A012091000130910101EC
:10044000281739070CF083CF8FEF9FEF90930901A6
:10045000809308017CCF809106019091070101965D
:1004600090930701809306018130910549F483E060
:1004700090E0909309018093080188E290E099CF81
:10048000029709F580910201811109C08DE290E087
:10049000909309018093080188E390E08ACF81302E
:1004A00049F489E290E0909309018093080184E384
:1004B00090E07FCF89E290E090930901809308015A
:1004C00086E390E076CF89E390E0909309018093F2
:1004D000080186E690E0909301018093000110925C
:1004E0000701109206018091040190910501019687
:1004F000909305018093040160CF833019F1863019
:1005000009F07CCF8881998188609983888376CF30
:10051000823119F148F48830E1F0893009F06ECF6A
:10052000888199818260F1CF833109F067CF88811A
:1005300099819061EACF1C8261CF1B825FCF8FEFE0
:100540008C835CCF8FEF8B8359CF888199818160B9
:10055000DCCF888199818460D8CF8881998180633C
:10056000D4CFCF93DF93CDB7DEB728970FB6F894EB
:10057000DEBF0FBECDBF80912001843089F582E0BF
:100580008093E9008091E80082FF12C08091E8002A
:1005900085FF09C050E040E067E070E0CE010196C1
:1005A000BCD08111F7CF8091E8008B778093E80071
:1005B00081E08093E9008091E80080FF11C0CE01C6
:1005C000019695DE50E040E068E070E0CE010196D3
:1005D00056D08111F7CF8091E8008E778093E800A4
:1005E00028960FB6F894DEBF0FBECDBFDF91CF9136
:1005F000089563DE7894B5DF54D4FDCF9C01DA0111
:10060000832F992783309105B9F060F481309105EB
:1006100061F10297E1F489E290E021EF31E02D935E
:100620003C9308958132910529F1829781F486E502
:1006300090E02CE232E0F3CFC9019927213061F03C
:100640008230910579F0EDEEF1E0892B39F090E000
:1006500080E030E020E0E3CFEFECF1E0849190E047
:100660009F01DDCFE9EAF1E0F9CF82E190E02AE1F4
:1006700032E0D5CF89E090E023E032E0D0CFAF92F6
:10068000BF92CF92DF92FF920F931F93CF93DF938E
:100690006C01EB018A0195D1F82E811124C001155E
:1006A000110539F0F80180819181C81BD90BC80E62
:1006B000D91EB12CA12C2097B1F08091E80085FDC6
:1006C00022C08091E8008E778093E800EAD301157C
:1006D0001105A1F0F80180819181A80EB91EB182A7
:1006E000A08285E0F82E8F2DDF91CF911F910F9181
:1006F000FF90DF90CF90BF90AF90089562D1882394
:10070000D1F2F82EF0CFF60181916F018093F100C4
:100710002197FFEFAF1ABF0ACECFAF92BF92CF9211
:10072000DF92FF920F931F93CF93DF936C01EB0146
:100730008A0147D1F82E811124C00115110539F025
:10074000F80180819181C81BD90BC80ED91EB12C2C
:10075000A12C2097B1F08091E80085FD22C0809106
:10076000E8008B778093E8009CD301151105A1F078
:10077000F80180819181A80EB91EB182A08285E026
:10078000F82E8F2DDF91CF911F910F91FF90DF9069
:10079000CF90BF90AF90089514D18823D1F2F82E56
:1007A000F0CF8091F100F60181936F012197FFEF67
:1007B000AF1ABF0ACECFFC01CB01209127013091A7
:1007C00028012617370790F0009729F42091E800B8
:1007D0002E772093E80040E0009751F4411108C0C3
:1007E0008091E80082FF30C080E00895C901F3CF16
:1007F000209120012223A1F12530A1F12091E800D0
:1008000023FD2CC02091E80022FDEACF2091E800D2
:1008100020FFE2CF2091F20030E0009719F0203461
:10082000310558F041E02034310509F040E02091D5
:10083000E8002E772093E800CFCF41914093F1005C
:1008400001972F5F3F4FE9CF80912001882341F02E
:10085000853041F08091E80083FFC2CF81E00895A8
:1008600082E0089583E00895FC01CB0120912701E7
:10087000309128012617370790F0009729F420912E
:10088000E8002E772093E80040E0009751F44111F2
:1008900008C08091E80082FF31C080E00895C9015E
:1008A000F3CF209120012223A9F12530A9F1209135
:1008B000E80023FD2DC02091E80022FDEACF209121
:1008C000E80020FFE2CF2091F20030E0009719F01D
:1008D0002034310558F041E02034310509F040E082
:1008E0002091E8002E772093E800CFCF44914093E9
:1008F000F100319601972F5F3F4FE8CF80912001A3
:10090000882341F0853041F08091E80083FFC1CF1A
:1009100081E0089582E0089583E00895982F95304E
:1009200028F08F708093E90081E008959093E900AA
:10093000242F762F50E0981731F07091EC00209121
:10094000ED005091F00021FD02C09F5FE8CF309193
:10095000EB003E7F3093EB003091ED003D7F309314
:10096000ED003091EB0031603093EB007093EC00C0
:100970002093ED005093F0002091EE0027FDE5CF8D
:1009800080E008958091210187FF13C08091E800E5
:1009900082FF06C08091E8008B778093E80004C056
:1009A000809120018111F2CF089580912001882348
:1009B000D9F38091E80080FFF8CF8091E8008E772E
:1009C000ECCF2091E4003091E50095E6A90120915B
:1009D000EC00822F817020FF06C08091E80080FF2C
:1009E00006C080E008952091E80022FD1AC08091A1
:1009F0002001882389F0853089F08091EB0085FD06
:100A00000FC02091E4003091E50042175307F9F23E
:100A10009150E1F684E0089582E0089583E008951E
:100A200081E0089541D043D08091D8008F778093A2
:100A3000D8008091D80080688093D8008091D80039
:100A40008F7D8093D80084E089BD86E089BD09B49C
:100A500000FEFDCF1092200110921C0110921E0189
:100A600010921D0142E360E080E058DF8091E100D8
:100A70008E7F8093E1008091E20081608093E200AC
:100A80008091E20088608093E2008091E0008E7F98
:100A90008093E0000895E3E6F0E080818E7F80831C
:100AA00081E080931F01BECF1092E2000895109262
:100AB000E10008951F920F920FB60F9211242F9309
:100AC0003F934F935F936F937F938F939F93AF93D6
:100AD000BF93EF93FF938091E10082FF0AC0809162
:100AE000E20082FF06C08091E1008B7F8093E100ED
:100AF000D7D18091E10080FF17C08091E20080FF94
:100B000013C08091E2008E7F8093E2008091E2002A
:100B100080618093E2008091D80080628093D80049
:100B200019BC10922001D9DB8091E10084FF27C01D
:100B30008091E20084FF23C084E089BD86E089BD06
:100B400009B400FEFDCF8091D8008F7D8093D8003E
:100B50008091E1008F7E8093E1008091E2008F7EA2
:100B60008093E2008091E20081608093E2008091B6
:100B70001C018823D9F184E080932001ADDB8091B2
:100B8000E10083FF22C08091E20083FF1EC08091BC
:100B9000E100877F8093E10082E080932001109242
:100BA0001C018091E1008E7F8093E1008091E20042
:100BB0008E7F8093E2008091E20080618093E2006A
:100BC00042E360E080E0AADE6BD1FF91EF91BF913C
:100BD000AF919F918F917F916F915F914F913F91D5
:100BE0002F910F900FBE0F901F9018958091E300EA
:100BF00087FD02C081E0C0CF83E0BECF1F93CF93BB
:100C0000DF93CDB7DEB7AA970FB6F894DEBF0FBE5D
:100C1000CDBF81E291E0FC0101962091F10020839B
:100C200021E089329207B9F761DB8091E80083FF08
:100C300010C08091210190912201953009F4BCC02F
:100C400000F5292F2D7F213009F486C0992309F45E
:100C50005EC08091E80083FF0AC08091E800877F32
:100C60008093E8008091EB0080628093EB00AA966D
:100C70000FB6F894DEBF0FBECDBFDF91CF911F91AD
:100C80000895983009F4CDC0993009F4D7C0963052
:100C900001F780588230E8F6809123019091240179
:100CA0008C3D23E0920709F0A9C083E08A838AE2A1
:100CB00089834FB7F894DE01139620E03EE051E2BD
:100CC000E32FF0E050935700E49120FF03C0E2953A
:100CD000EF703F5FEF708E2F90E0EA3008F48CC029
:100CE000C7968D939D932F5F243151F74FBF80910D
:100CF000E800877F8093E8006AE270E0CE01019609
:100D00005ADD8091E8008B778093E800A2CF80388D
:100D100081F0823809F09DCF809125018F708093FA
:100D2000E9008091EB0085FB882780F91092E900AB
:100D300006C080911D0190911E01911182609091D9
:100D4000E800977F9093E8008093F1001092F10003
:100D50008091E8008E77A0C0882309F48DC082308E
:100D600009F077CF80912301811191C080912501F5
:100D70008F7009F46ECF8093E9002091EB0020FF83
:100D800086C0933031F48091EB0080628093EB0059
:100D90007EC09091EB0090619093EB0021E030E0F9
:100DA00001C0220F8A95EAF72093EA001092EA0028
:100DB0008091EB008860EACF81114BCF1091230125
:100DC0001F778091E3008078812B8093E3008091EE
:100DD000E800877F8093E800D5DD8091E80080FF00
:100DE000FCCF8091E30080688093E30082E01111E2
:100DF00083E0809320012DCFC09673CFAE014F5F6B
:100E00005F4F60912501FADBBC01892B09F421CFEA
:100E10008091E800877F8093E80089819A8124DDB2
:100E200070CF803809F015CF8091E800877F8093DC
:100E3000E80080911C018093F1008ACF811109CFD5
:100E400090912301923008F004CF8091E800877FD1
:100E50008093E80090931C0195DD80911C0188230C
:100E600011F084E005C08091E30087FDFACF81E0B6
:100E70008093200133DAEDCE80912301813009F097
:100E8000E8CE81E0933009F080E080931E0110925B
:100E9000E9008091E800877F8093E80073DDD9CE78
:100EA0000895CF9380912001882399F0C091E900A3
:100EB000CF709091EC00892F817090FD80E8C82B55
:100EC0001092E9008091E80083FD98DECF70C09316
:100ED000E900CF9108950024552704C0080E591F3A
:100EE000880F991F009729F076956795B8F37105DB
:100EF000B9F7802D952F0895FB01DC0102C0059004
:0E0F00000D9241505040D8F70895F894FFCF5D
:040F0E0002000200DB
:00000001FF
