:10000000ADC00000C6C00000C4C00000C2C00000F7
:10001000C0C00000BEC00000BCC00000BAC00000EC
:10002000B8C00000B6C00000B4C000001DC400008D
:10003000B0C00000AEC00000ACC00000AAC000000C
:10004000A8C00000A6C00000A4C00000A2C000001C
:10005000A0C000009EC000009CC000009AC000002C
:1000600098C0000096C0000094C0000092C000003C
:1000700090C00000151E00080100150100080100D5
:10008000150100240350004F004B004B0045004E6B
:1000900000200043004F004E00540052004F004C1F
:1000A000004C004500520000001C0348004F005265
:1000B000004900200043004F002E002C004C00544B
:1000C0000044002E00000004030904090229000175
:1000D000010080FA09040000020300000009211158
:1000E00001000122560007050203400005070581B3
:1000F0000340000512010002000000400D0F9200B5
:1001000000010102000105010905A10115002501F9
:100110003500450175019510050919012910810265
:1001200005012507463B01750495016514093981D0
:100130004265009501810126FF0046FF0009300954
:1001400031093209357508950481020600FF09203E
:10015000950181020A212695089102C011241FBE33
:10016000CFEFD2E0DEBFCDBF11E0A0E0B1E0E2EC26
:10017000FCE002C005900D92A230B107D9F721E052
:10018000A2E0B1E001C01D92A132B207E1F70BD1AC
:1001900096C536CF84B7877F84BF0FB6F894A895ED
:1001A00080916000886180936000109260000FBEB3
:1001B0004CC30895089542E360EC82E089D242E3A3
:1001C00061EC81E085C20895CF93DF93EC0198E064
:1001D000FE01292F11922A95E9F780E88B838C8301
:1001E0008D838E839A838091060190910701181662
:1001F0001906A4F488E0E9E0F1E0DE0101900D9237
:100200008A95E1F7809106019091070101979093FB
:10021000070180930601DF91CF9108958091080135
:10022000882369F08130B9F388E0FE01A9E0B1E0EC
:1002300001900D928A95E1F782E090E0E8CF8091FD
:10024000020190910301019661F483E090E09093A4
:1002500003018093020184E090E090930101809378
:100260000001809102019091030163E070E00DD5DF
:10027000BC016C587F4F43E050E081E191E016D51E
:1002800080911101823109F442C088F58830A9F1CA
:100290008930C9F1809104019091050101969093F4
:1002A0000501809304012091120130911301281758
:1002B000390708F0B9CF80910201909103010196AE
:1002C00090930301809302011092050110920401A2
:1002D0002091000130910101281739070CF0A4CFBB
:1002E0008FEF9FEF90930301809302019DCF8331A5
:1002F00089F688819981906103C0888199818460A1
:1003000099838883C7CF888199818260F9CF88815A
:1003100099818063F5CFCF93DF93CDB7DEB7289770
:100320000FB6F894DEBF0FBECDBF809118018430A8
:1003300089F582E08093E9008091E80082FF12C095
:100340008091E80085FF09C050E040E067E070E080
:10035000CE010196BCD08111F7CF8091E8008B7758
:100360008093E80081E08093E9008091E80080FFBD
:1003700011C0CE01019628DF50E040E068E070E057
:10038000CE01019656D08111F7CF8091E8008E778B
:100390008093E80028960FB6F894DEBF0FBECDBF5D
:1003A000DF91CF910895F6DE7894B5DF54D4FDCF78
:1003B0009C01DA01832F992783309105B9F060F40D
:1003C0008130910561F10297E1F489E290E02BEC34
:1003D00030E02D933C9308958132910529F1829765
:1003E00081F486E590E026E031E0F3CFC90199275A
:1003F000213061F08230910579F0E7ECF0E0892B53
:1004000039F090E080E030E020E0E3CFE9EAF0E08E
:10041000849190E09F01DDCFE3E8F0E0F9CF82E145
:1004200090E024EF30E0D5CF89E090E02DED30E092
:10043000D0CFAF92BF92CF92DF92FF920F931F93D4
:10044000CF93DF936C01EB018A0195D1F82E8111D6
:1004500024C00115110539F0F80180819181C81B74
:10046000D90BC80ED91EB12CA12C2097B1F08091C8
:10047000E80085FD22C08091E8008E778093E80037
:10048000EAD301151105A1F0F80180819181A80E30
:10049000B91EB182A08285E0F82E8F2DDF91CF9119
:1004A0001F910F91FF90DF90CF90BF90AF90089574
:1004B00062D18823D1F2F82EF0CFF60181916F013D
:1004C0008093F1002197FFEFAF1ABF0ACECFAF9212
:1004D000BF92CF92DF92FF920F931F93CF93DF9340
:1004E0006C01EB018A0147D1F82E811124C001155E
:1004F000110539F0F80180819181C81BD90BC80E14
:10050000D91EB12CA12C2097B1F08091E80085FD77
:1005100022C08091E8008B778093E8009CD301157E
:100520001105A1F0F80180819181A80EB91EB18258
:10053000A08285E0F82E8F2DDF91CF911F910F9132
:10054000FF90DF90CF90BF90AF90089514D1882393
:10055000D1F2F82EF0CF8091F100F60181936F0176
:100560002197FFEFAF1ABF0ACECFFC01CB0120913C
:100570001F01309120012617370790F0009729F4CA
:100580002091E8002E772093E80040E0009751F496
:10059000411108C08091E80082FF30C080E00895DA
:1005A000C901F3CF209118012223A1F12530A1F137
:1005B0002091E80023FD2CC02091E80022FDEACF25
:1005C0002091E80020FFE2CF2091F20030E0009778
:1005D00019F02034310558F041E02034310509F09C
:1005E00040E02091E8002E772093E800CFCF4191A2
:1005F0004093F10001972F5F3F4FE9CF80911801A1
:10060000882341F0853041F08091E80083FFC2CF1C
:1006100081E0089582E0089583E00895FC01CB0114
:1006200020911F01309120012617370790F0009785
:1006300029F42091E8002E772093E80040E000970D
:1006400051F4411108C08091E80082FF31C080E080
:100650000895C901F3CF209118012223A9F1253073
:10066000A9F12091E80023FD2DC02091E80022FD92
:10067000EACF2091E80020FFE2CF2091F20030E0A5
:10068000009719F02034310558F041E0203431054D
:1006900009F040E02091E8002E772093E800CFCFCA
:1006A00044914093F100319601972F5F3F4FE8CF7F
:1006B00080911801882341F0853041F08091E80055
:1006C00083FFC1CF81E0089582E0089583E008951B
:1006D000982F953028F08F708093E90081E008957D
:1006E0009093E900242F762F50E0981731F0709105
:1006F000EC002091ED005091F00021FD02C09F5FC1
:10070000E8CF3091EB003E7F3093EB003091ED006D
:100710003D7F3093ED003091EB0031603093EB0082
:100720007093EC002093ED005093F0002091EE00C8
:1007300027FDE5CF80E008958091190187FF13C060
:100740008091E80082FF06C08091E8008B7780935B
:10075000E80004C0809118018111F2CF08958091C2
:1007600018018823D9F38091E80080FFF8CF8091A9
:10077000E8008E77ECCF2091E4003091E50095E61B
:10078000A9012091EC00822F817020FF06C080918A
:10079000E80080FF06C080E008952091E80022FD77
:1007A0001AC080911801882389F0853089F08091E2
:1007B000EB0085FD0FC02091E4003091E500421769
:1007C0005307F9F29150E1F684E0089582E008952C
:1007D00083E0089581E0089541D043D08091D8000E
:1007E0008F778093D8008091D80080688093D8005C
:1007F0008091D8008F7D8093D80084E089BD86E009
:1008000089BD09B400FEFDCF1092180110921401A9
:10081000109216011092150142E360E080E058DF6B
:100820008091E1008E7F8093E1008091E200816001
:100830008093E2008091E20088608093E2008091E2
:10084000E0008E7F8093E0000895E3E6F0E0808191
:100850008E7F808381E080931701BECF1092E200EB
:1008600008951092E10008951F920F920FB60F9213
:1008700011242F933F934F935F936F937F938F93A5
:100880009F93AF93BF93EF93FF938091E10082FF1B
:100890000AC08091E20082FF06C08091E1008B7F58
:1008A0008093E100D7D18091E10080FF17C0809153
:1008B000E20080FF13C08091E2008E7F8093E2000F
:1008C0008091E20080618093E2008091D800806294
:1008D0008093D80019BC109218016CDC8091E10063
:1008E00084FF27C08091E20084FF23C084E089BD9B
:1008F00086E089BD09B400FEFDCF8091D8008F7DD0
:100900008093D8008091E1008F7E8093E1008091F8
:10091000E2008F7E8093E2008091E200816080930C
:10092000E200809114018823D9F184E080931801BA
:1009300040DC8091E10083FF22C08091E20083FFD0
:100940001EC08091E100877F8093E10082E0809368
:100950001801109214018091E1008E7F8093E100D4
:100960008091E2008E7F8093E2008091E2008061BE
:100970008093E20042E360E080E0AADE6BD1FF9169
:10098000EF91BF91AF919F918F917F916F915F9107
:100990004F913F912F910F900FBE0F901F90189580
:1009A0008091E30087FD02C081E0C0CF83E0BECF2D
:1009B0001F93CF93DF93CDB7DEB7AA970FB6F89406
:1009C000DEBF0FBECDBF89E191E0FC010196209111
:1009D000F100208321E081329207B9F7F4DB8091A6
:1009E000E80083FF10C08091190190911A019530A1
:1009F00009F4BCC000F5292F2D7F213009F486C0F1
:100A0000992309F45EC08091E80083FF0AC08091B9
:100A1000E800877F8093E8008091EB0080628093FC
:100A2000EB00AA960FB6F894DEBF0FBECDBFDF91E4
:100A3000CF911F910895983009F4CDC0993009F4F1
:100A4000D7C0963001F780588230E8F680911B01BC
:100A500090911C018C3D23E0920709F0A9C083E02E
:100A60008A838AE289834FB7F894DE01139620E0E7
:100A70003EE051E2E32FF0E050935700E49120FF75
:100A800003C0E295EF703F5FEF708E2F90E0EA3089
:100A900008F48CC0C7968D939D932F5F243151F736
:100AA0004FBF8091E800877F8093E8006AE270E0A2
:100AB000CE0101965ADD8091E8008B778093E800A3
:100AC000A2CF803881F0823809F09DCF80911D013E
:100AD0008F708093E9008091EB0085FB882780F977
:100AE0001092E90006C080911501909116019111B4
:100AF00082609091E800977F9093E8008093F100E6
:100B00001092F1008091E8008E77A0C0882309F44C
:100B10008DC0823009F077CF80911B01811191C087
:100B200080911D018F7009F46ECF8093E9002091B0
:100B3000EB0020FF86C0933031F48091EB0080629F
:100B40008093EB007EC09091EB0090619093EB005E
:100B500021E030E001C0220F8A95EAF72093EA00F5
:100B60001092EA008091EB008860EACF81114BCFB0
:100B700010911B011F778091E3008078812B809377
:100B8000E3008091E800877F8093E800D5DD8091C5
:100B9000E80080FFFCCF8091E30080688093E30051
:100BA00082E0111183E0809318012DCFC09673CF9E
:100BB000AE014F5F5F4F60911D01FADBBC01892BD5
:100BC00009F421CF8091E800877F8093E800898134
:100BD0009A8124DD70CF803809F015CF8091E8002C
:100BE000877F8093E800809114018093F1008ACF81
:100BF000811109CF90911B01923008F004CF8091B0
:100C0000E800877F8093E8009093140195DD809140
:100C10001401882311F084E005C08091E30087FD72
:100C2000FACF81E080931801C6DAEDCE80911B01E6
:100C3000813009F0E8CE81E0933009F080E08093C4
:100C400016011092E9008091E800877F8093E80008
:100C500073DDD9CE0895CF9380911801882399F040
:100C6000C091E900CF709091EC00892F817090FDC8
:100C700080E8C82B1092E9008091E80083FD98DE9F
:100C8000CF70C093E900CF9108950024552704C088
:100C9000080E591F880F991F009729F076956795C0
:100CA000B8F37105B9F7802D952F0895FB01DC018C
:100CB00002C005900D9241505040D8F70895F89425
:020CC000FFCF64
:020CC20002002E
:00000001FF
