:10000000D3C10000EDC10000EBC10000E9C1000058
:10001000E7C10000E5C10000E3C10000E1C100004C
:10002000DFC10000DDC10000DBC1000045C70000EA
:10003000D7C10000D5C10000D3C10000D1C100006C
:10004000CFC10000CDC10000CBC10000C9C100007C
:10005000C7C10000C5C10000C3C10000C1C100008C
:10006000BFC10000BDC10000BBC10000B9C100009C
:10007000B7C10000151E000901001501000732007C
:100080000F0F2709010015060009010015F00008EF
:100090001400150100080600150100081E0015C80F
:1000A0000008640A15010008501415010000010041
:1000B000150100080100151E000832001501000896
:1000C00001001513000F28001501000101001501A2
:1000D00000010100150100010100150100080100E7
:1000E00015010000010015010000010015010000CC
:1000F00001001501000201001501000001001501B9
:1001000000000100150100000100150100030100BD
:100110001501000F3300150100080100151E001322
:1001200001001528000601001508000801001578D7
:100130000008010015320008010015D00208010076
:1001400015CC01130100152800000100150100085D
:100150000100150100015A001501000001001508F9
:10016000000801001501000101001501000801004F
:10017000151400080100155A00130100151E001384
:100180000100153C00080100155802130100151E5E
:100190000001010015010003010015010003010029
:1001A00015010003010015010003010015010008FD
:1001B00001001501000150001501000801001501A2
:1001C00000010100150100010100150100010100FD
:1001D00015010001010015010008010015080008C3
:1001E00001001504000801001508000101001501B7
:1001F00000010100150100080100150700030100BE
:1002000015010003010015010000010015010003A4
:100210000100150100030100150100030100150193
:100220000003010015010003010015010008010091
:10023000150400130100151E00130100151E00090E
:10024000200015010008C800150100081400150160
:1002500000080600150100081E00150100087800BE
:100260001501000890011501001301001528000078
:100270000100150100030100150100030100150133
:100280000003010015010003010015010003010036
:100290001501000301001501000301001501000311
:1002A00001001501000301001501000801001501FE
:1002B00000015A00150100000100150800080100A6
:1002C000150900130100151E00130100153200244A
:1002D0000350004F004B004B0045004E00200043F0
:1002E000004F004E00540052004F004C004C00459F
:1002F00000520000001C0348004F0052004900203B
:100300000043004F002E002C004C00540044002EEF
:10031000000000040309040902290001010080FA19
:10032000090400000203000000092111010001225C
:10033000560007050203400005070581034000053C
:1003400012010002000000400D0F920000010102A6
:10035000000105010905A101150025013500450130
:10036000750195100509190129108102050125075C
:10037000463B017504950165140939814265009574
:1003800001810126FF0046FF0009300931093209C9
:10039000357508950481020600FF09209501810248
:1003A0000A212695089102C011241FBECFEFD2E08A
:1003B000DEBFCDBF11E0A0E0B1E0E2E1F5E102C0B7
:1003C00005900D92A231B107D9F721E0A2E1B1E089
:1003D00001C01D92A633B207E1F709D30C94870A36
:1003E0000FCE84B7877F84BF0FB6F894A89580910D
:1003F0006000886180936000109260000FBE4DC560
:100400000895089542E360EC82E08AD442E361EC0F
:1004100081E086C40895CF93DF93EC0198E0FE015C
:10042000292F11922A95E9F780E88B838C838D839D
:100430008E839A8380911901882371F088E0EEE120
:10044000F1E0DE0101900D928A95E1F780911901AA
:100450008150809319011EC0809115019091160161
:10046000019609F00FC12091130130911401C901C7
:100470000196909314018093130181309105D1F47A
:1004800080911D01882349F084E690E09093140147
:1004900080931301DF91CF91089583E090E09093D2
:1004A0001601809315018EE090E0909301018093F6
:1004B0000001E8C08230910581F480911C01811116
:1004C00003C08EE090E0E2CF8BE190E090931601C4
:1004D0008093150182E290E0E8CFA90142505109D2
:1004E0004B30510508F06DC023E030E0B90112D760
:1004F000009709F04CC080911B01882331F199D7F6
:100500006AE070E007D780931201811123C083E273
:1005100090E0909316018093150184E290E090930F
:10052000010180930001809113019091140122E058
:1005300030E08C30910511F421E030E0820F931F00
:1005400090931401809313019DC06D5F7E4FFB015A
:100550008081D9CF63E0D2D6292F90E0880F991FF0
:10056000211108C08B96909316018093150184E3A6
:1005700090E09BCF859690931601809315018AE2B7
:1005800090E0213009F091CF8CE290E08ECF01977E
:1005900049F483E290E0909316018093150184E280
:1005A00090E083CF809112018150990BB901B2D6AE
:1005B000660F771F635E7F4F70931601609315017E
:1005C00089CF8E30910549F485E390E09093160130
:1005D0008093150188E390E068CF8F309105F9F49E
:1005E00020910301222379F085EA90E0909316018F
:1005F000809315018AEA90E09093010180930001B5
:1006000087EC90E09DCF20911A01222311F081E127
:1006100090E09093160180931501019646CF8031AA
:10062000910549F483E190E09093160180931501C0
:1006300088E190E03ACFA901405151094832510573
:1006400048F489E190E090931601809315018AE1C6
:1006500090E02BCF8933910509F07EC0809109018C
:10066000811171C089E390E0909316018093150188
:1006700084E490E0909301018093000110921401B2
:1006800010921301809115019091160163E070E0C2
:1006900024D6BC016C587F4F43E050E086E291E0E5
:1006A000D6D680912601873009F449C108F028C1C7
:1006B000823009F43CC108F018C1882309F435C11F
:1006C000813009F436C120911701309118012F5F54
:1006D0003F4F30931801209317018091150190919D
:1006E00016018430910541F440910B0150910C01A9
:1006F00050932801409327014091270150912801F0
:1007000042175307B0F40196909316018093150198
:1007100010921801109217012091000130910101EF
:100720002817390734F48FEF9FEF909316018093C9
:10073000150188E0FE01AEE1B1E001900D928A95CD
:10074000E1F782E086CE85E490E0909316018093F5
:1007500015018CE590E08ECF8536910549F48DE545
:1007600090E090931601809315018CE790E09DCE68
:100770008636910549F485E990E0909316018093BF
:10078000150188E990E091CE8637910579F483E0F0
:1007900090E090931601809315018EE090E0909385
:1007A00001018093000181E090E0CACEA901465684
:1007B00051094F30510508F056C065E070E0AAD5E8
:1007C0008330910549F48DE990E090931601809370
:1007D000150184EA90E069CE8430910549F48DE5F5
:1007E00090E0909316018093150188E790E05DCE2C
:1007F000009749F48DE790E09093160180931501DE
:1008000082E890E052CE8130910509F580910A018D
:10081000811109C087E890E090931601809315013B
:1008200082E990E042CE813049F483E890E09093F1
:100830001601809315018EE890E037CE83E890E0B2
:10084000909316018093150180E990E02ECE0297D7
:1008500009F018CF83E990E0909316018093150179
:100860008CE990E022CE883C910581F480910201D0
:1008700090E0880F991F2FEB30E0281B390B309345
:1008800016012093150182EC90E00FCE285C31090F
:100890002B373140B8F423EC30E03093160120932D
:1008A000150124EC30E030930101209300012091E8
:1008B0001A012111E7CE8037914009F0E3CE83E49D
:1008C00092E03ECE8434924009F0DCCE85EC90E09C
:1008D000909316018093150188EC90E090930101AC
:1008E000809300018FE090E02BCE833029F1863099
:1008F00009F0E9CE88819981886099838883E3CE65
:100900008F3029F148F48830F1F0893009F0DBCEDE
:10091000888199818260F1CF8231E9F0833109F0D9
:10092000D2CE888199819061E8CF1C82CCCE1B8287
:10093000CACE8FEF8C83C7CE8FEF8B83C4CE8881D6
:1009400099818160DACF888199818460D6CF88814E
:1009500099819260D2CF888199818063CECFCF93E5
:10096000DF93CDB7DEB728970FB6F894DEBF0FBE82
:10097000CDBF80912D01843089F582E08093E9001C
:100980008091E80082FF12C08091E80085FF09C0D5
:1009900050E040E067E070E0CE010196C0D08111E8
:1009A000F7CF8091E8008B778093E80081E0809317
:1009B000E9008091E80080FF11C0CE0101962BDD97
:1009C00050E040E068E070E0CE0101965AD081111D
:1009D000F7CF8091E8008E778093E80028960FB6D5
:1009E000F894DEBF0FBECDBFDF91CF910895809107
:1009F000080190E021D5F5DC7894B1DF54D4FDCF27
:100A00009C01DA01832F992783309105B9F060F4B6
:100A10008130910561F10297E1F489E290E027E1EC
:100A200033E02D933C9308958132910529F182970B
:100A300081F486E590E022E533E0F3CFC901992700
:100A4000213061F08230910579F0E3E1F3E0892B08
:100A500039F090E080E030E020E0E3CFE5EFF2E035
:100A6000849190E09F01DDCFEFECF2E0F9CF82E1DD
:100A700090E020E433E0D5CF89E090E029E233E054
:100A8000D0CFAF92BF92CF92DF92FF920F931F937E
:100A9000CF93DF936C01EB018A0195D1F82E811180
:100AA00024C00115110539F0F80180819181C81B1E
:100AB000D90BC80ED91EB12CA12C2097B1F0809172
:100AC000E80085FD22C08091E8008E778093E800E1
:100AD000EAD301151105A1F0F80180819181A80EDA
:100AE000B91EB182A08285E0F82E8F2DDF91CF91C3
:100AF0001F910F91FF90DF90CF90BF90AF9008951E
:100B000062D18823D1F2F82EF0CFF60181916F01E6
:100B10008093F1002197FFEFAF1ABF0ACECFAF92BB
:100B2000BF92CF92DF92FF920F931F93CF93DF93E9
:100B30006C01EB018A0147D1F82E811124C0011507
:100B4000110539F0F80180819181C81BD90BC80EBD
:100B5000D91EB12CA12C2097B1F08091E80085FD21
:100B600022C08091E8008B778093E8009CD3011528
:100B70001105A1F0F80180819181A80EB91EB18202
:100B8000A08285E0F82E8F2DDF91CF911F910F91DC
:100B9000FF90DF90CF90BF90AF90089514D188233D
:100BA000D1F2F82EF0CF8091F100F60181936F0120
:100BB0002197FFEFAF1ABF0ACECFFC01CB012091E6
:100BC0003401309135012617370790F0009729F44A
:100BD0002091E8002E772093E80040E0009751F440
:100BE000411108C08091E80082FF30C080E0089584
:100BF000C901F3CF20912D012223A1F12530A1F1CC
:100C00002091E80023FD2CC02091E80022FDEACFCE
:100C10002091E80020FFE2CF2091F20030E0009721
:100C200019F02034310558F041E02034310509F045
:100C300040E02091E8002E772093E800CFCF41914B
:100C40004093F10001972F5F3F4FE9CF80912D0135
:100C5000882341F0853041F08091E80083FFC2CFC6
:100C600081E0089582E0089583E00895FC01CB01BE
:100C700020913401309135012617370790F0009705
:100C800029F42091E8002E772093E80040E00097B7
:100C900051F4411108C08091E80082FF31C080E02A
:100CA0000895C901F3CF20912D012223A9F1253008
:100CB000A9F12091E80023FD2DC02091E80022FD3C
:100CC000EACF2091E80020FFE2CF2091F20030E04F
:100CD000009719F02034310558F041E020343105F7
:100CE00009F040E02091E8002E772093E800CFCF74
:100CF00044914093F100319601972F5F3F4FE8CF29
:100D000080912D01882341F0853041F08091E800E9
:100D100083FFC1CF81E0089582E0089583E00895C4
:100D2000982F953028F08F708093E90081E0089526
:100D30009093E900242F762F50E0981731F07091AE
:100D4000EC002091ED005091F00021FD02C09F5F6A
:100D5000E8CF3091EB003E7F3093EB003091ED0017
:100D60003D7F3093ED003091EB0031603093EB002C
:100D70007093EC002093ED005093F0002091EE0072
:100D800027FDE5CF80E0089580912E0187FF13C0F5
:100D90008091E80082FF06C08091E8008B77809305
:100DA000E80004C080912D018111F2CF0895809157
:100DB0002D018823D9F38091E80080FFF8CF80913E
:100DC000E8008E77ECCF2091E4003091E50095E6C5
:100DD000A9012091EC00822F817020FF06C0809134
:100DE000E80080FF06C080E008952091E80022FD21
:100DF0001AC080912D01882389F0853089F0809177
:100E0000EB0085FD0FC02091E4003091E500421712
:100E10005307F9F29150E1F684E0089582E00895D5
:100E200083E0089581E0089541D043D08091D800B7
:100E30008F778093D8008091D80080688093D80005
:100E40008091D8008F7D8093D80084E089BD86E0B2
:100E500089BD09B400FEFDCF10922D011092290129
:100E600010922B0110922A0142E360E080E058DFEB
:100E70008091E1008E7F8093E1008091E2008160AB
:100E80008093E2008091E20088608093E20080918C
:100E9000E0008E7F8093E0000895E3E6F0E080813B
:100EA0008E7F808381E080932C01BECF1092E20080
:100EB00008951092E10008951F920F920FB60F92BD
:100EC00011242F933F934F935F936F937F938F934F
:100ED0009F93AF93BF93EF93FF938091E10082FFC5
:100EE0000AC08091E20082FF06C08091E1008B7F02
:100EF0008093E100D7D18091E10080FF17C08091FD
:100F0000E20080FF13C08091E2008E7F8093E200B8
:100F10008091E20080618093E2008091D80080623D
:100F20008093D80019BC10922D016BDA8091E100FA
:100F300084FF27C08091E20084FF23C084E089BD44
:100F400086E089BD09B400FEFDCF8091D8008F7D79
:100F50008093D8008091E1008F7E8093E1008091A2
:100F6000E2008F7E8093E2008091E20081608093B6
:100F7000E200809129018823D9F184E080932D013A
:100F80003FDA8091E10083FF22C08091E20083FF7D
:100F90001EC08091E100877F8093E10082E0809312
:100FA0002D01109229018091E1008E7F8093E10054
:100FB0008091E2008E7F8093E2008091E200806168
:100FC0008093E20042E360E080E0AADE6BD1FF9113
:100FD000EF91BF91AF919F918F917F916F915F91B1
:100FE0004F913F912F910F900FBE0F901F9018952A
:100FF0008091E30087FD02C081E0C0CF83E0BECFD7
:101000001F93CF93DF93CDB7DEB7AA970FB6F894AF
:10101000DEBF0FBECDBF8EE291E0FC0101962091B4
:10102000F100208321E086339207B9F7F3D980914C
:10103000E80083FF10C080912E0190912F01953020
:1010400009F4BCC000F5292F2D7F213009F486C09A
:10105000992309F45EC08091E80083FF0AC0809163
:10106000E800877F8093E8008091EB0080628093A6
:10107000EB00AA960FB6F894DEBF0FBECDBFDF918E
:10108000CF911F910895983009F4CDC0993009F49B
:10109000D7C0963001F780588230E8F68091300151
:1010A000909131018C3D23E0920709F0A9C083E0C3
:1010B0008A838AE289834FB7F894DE01139620E091
:1010C0003EE051E2E32FF0E050935700E49120FF1F
:1010D00003C0E295EF703F5FEF708E2F90E0EA3033
:1010E00008F48CC0C7968D939D932F5F243151F7E0
:1010F0004FBF8091E800877F8093E8006AE270E04C
:10110000CE0101965ADD8091E8008B778093E8004C
:10111000A2CF803881F0823809F09DCF80913201D2
:101120008F708093E9008091EB0085FB882780F920
:101130001092E90006C080912A0190912B01911133
:1011400082609091E800977F9093E8008093F1008F
:101150001092F1008091E8008E77A0C0882309F4F6
:101160008DC0823009F077CF80913001811191C01C
:10117000809132018F7009F46ECF8093E900209145
:10118000EB0020FF86C0933031F48091EB00806249
:101190008093EB007EC09091EB0090619093EB0008
:1011A00021E030E001C0220F8A95EAF72093EA009F
:1011B0001092EA008091EB008860EACF81114BCF5A
:1011C000109130011F778091E3008078812B80930C
:1011D000E3008091E800877F8093E800D5DD80916F
:1011E000E80080FFFCCF8091E30080688093E300FB
:1011F00082E0111183E080932D012DCFC09673CF33
:10120000AE014F5F5F4F60913201FADBBC01892B69
:1012100009F421CF8091E800877F8093E8008981DD
:101220009A8124DD70CF803809F015CF8091E800D5
:10123000877F8093E800809129018093F1008ACF15
:10124000811109CF90913001923008F004CF809144
:10125000E800877F8093E8009093290195DD8091D5
:101260002901882311F084E005C08091E30087FD07
:10127000FACF81E080932D01C5D8EDCE8091300169
:10128000813009F0E8CE81E0933009F080E080936E
:101290002B011092E9008091E800877F8093E8009D
:1012A00073DDD9CE0895CF9380912D01882399F0D5
:1012B000C091E900CF709091EC00892F817090FD72
:1012C00080E8C82B1092E9008091E80083FD98DE49
:1012D000CF70C093E900CF9108950024552704C032
:1012E000080E591F880F991F009729F0769567956A
:1012F000B8F37105B9F7802D952F0895991B79E002
:1013000004C0991F961708F0961B881F7A95C9F795
:101310008095089597FB072E16F4009406D077FD6C
:1013200008D00BD007FC05D03EF4909581959F4FD7
:101330000895709561957F4F0895AA1BBB1B51E1DD
:1013400007C0AA1FBB1FA617B70710F0A61BB70B35
:10135000881F991F5A95A9F780959095BC01CD01DA
:101360000895CF92DF92EF92FF92CF93DF93CDB7A4
:10137000DEB72A970FB6F894DEBF0FBECDBF8987C0
:101380009A87A985BA858D919D910D90BC91A02DCC
:1013900089839A83AB83BC83892B8A2B8B2B41F463
:1013A00084E299EDABE5B7E089839A83AB83BC8394
:1013B00069817A818B819C812DE133EF41E050E09E
:1013C00068D02D833E834F83588769837A838B83CC
:1013D0009C8327EA31E440E050E042D06B017C017D
:1013E0002CEE34EF4FEF5FEF6D817E818F8198851A
:1013F00037D0DC01CB018C0D9D1DAE1DBF1DB7FF8D
:1014000003C00197A109B048E985FA8580839183DB
:10141000A283B3839F772A960FB6F894DEBF0FBEE0
:10142000CDBFDF91CF91FF90EF90DF90CF900895E7
:1014300098CF8DE091E095CFB0E0A0E080930D01D2
:1014400090930E01A0930F01B09310010895FB013A
:10145000DC0102C005900D9241505040D8F708952C
:10146000EE27FF27AA27BB2708C0A20FB31FE41F40
:10147000F51F220F331F441F551F969587957795AB
:10148000679598F37040A9F7009799F7BD01CF01D0
:101490000895052E97FB16F400940FD057FD05D044
:1014A00014D007FC02D046F408C050954095309502
:1014B00021953F4F4F4F5F4F0895909580957095C0
:1014C00061957F4F8F4F9F4F0895A1E21A2EAA1B5F
:1014D000BB1BFD010DC0AA1FBB1FEE1FFF1FA217E4
:1014E000B307E407F50720F0A21BB30BE40BF50BE1
:1014F000661F771F881F991F1A9469F7609570956A
:10150000809590959B01AC01BD01CF010895F894A1
:02151000FFCF0B
:1015120002000101000609004F01028403010000DC
:021522000000C7
:00000001FF
