:10000000A6C00000BFC00000BDC00000BBC0000013
:10001000B9C00000B7C00000B5C00000B3C0000008
:10002000B1C00000AFC00000ADC000006DC4000052
:10003000A9C00000A7C00000A5C00000A3C0000028
:10004000A1C000009FC000009DC000009BC0000038
:1000500099C0000097C0000095C0000093C0000048
:1000600091C000008FC000008DC000008BC0000058
:1000700089C00000240350004F004B004B00450096
:100080004E00200043004F004E00540052004F002D
:100090004C004C004500520000001C0348004F007B
:1000A00052004900200043004F002E002C004C005D
:1000B000540044002E000000040309040902290032
:1000C00001010080FA090400000203000000092178
:1000D0001101000122560007050203400005070533
:1000E000810340000512010002000000400D0F9244
:1000F0000000010102000105010905A1011500250B
:100100000135004501750195100509190129108176
:100110000205012507463B0175049501651409395F
:10012000814265009501810126FF0046FF000930EC
:100130000931093209357508950481020600FF0965
:1001400020950181020A212695089102C000112400
:100150001FBECFEFD2E0DEBFCDBF12E0A0E0B1E026
:10016000E0E5FFE002C005900D92A430B107D9F799
:1001700022E0A4E0B2E001C01D92A032B207E1F794
:100180005ED1E4C63DCF84B7877F84BF0FB6F894B5
:10019000A895809160008861809360001092600053
:1001A0000FBEA3C30895089542E360EC82E0E0D25D
:1001B00042E361EC81E0DCC20895CF93DF93EC0170
:1001C00098E0FE01892F11928A95E9F780E88B83E8
:1001D0008C838D838E839A8380910802882381F09B
:1001E00088E0EBE0F2E0DE0101900D928A95E1F704
:1001F00080910802815080930802DF91CF91089589
:10020000809105028F3FE9F4809104028F5F809313
:100210000402813039F486E0809305028CE08093FB
:1002200000010FC0823009F053C080910A02811191
:100230004AC080E18093050289E380930001109217
:10024000040280910502082E000C990B63E070E017
:100250006CD5FC01E65FFE4F808181116DC01C8270
:10026000E0910602F09107023196F0930702E093C5
:10027000060220910502822F022E000C990B63E0EA
:1002800070E053D5DC01A65FBE4F11968D919C9115
:100290008E179F0770F42F5F2093050210920702BC
:1002A000109206028091000182171CF48FEF809358
:1002B000050288E0FE01ABE0B2E001900D928A9564
:1002C000E1F782E098CF8AE38093050280E4A7CF2C
:1002D0008E3011F48DE0AECF63E038D5911124C09B
:1002E00090910902992389F0CCD56AE070E03AD563
:1002F000882309F482CF63E029D5880F91110BC0C0
:10030000875B8093050282E58ACFE82FF0E0E0501A
:10031000FF4F8081EDCF8D5B8093050288E49130A3
:1003200009F07DCF8AE47BCF8BE3913069F681E4DD
:100330008093050282E473CF823011F41B8290CF48
:10034000813019F48FEF8C838BCF833019F48FEFCA
:100350008B8386CF863031F4888199818860998338
:1003600088837ECF873021F4888199818160F7CF9F
:10037000883021F4888199818460F1CF893021F41B
:10038000888199818260EBCF8F3021F488819981B7
:100390009260E5CF823121F4888199818063DFCF3B
:1003A000833109F05DCF888199819061D8CFCF9357
:1003B000DF93CDB7DEB728970FB6F894DEBF0FBE38
:1003C000CDBF80911702843089F582E08093E900E7
:1003D0008091E80082FF12C08091E80085FF09C08B
:1003E00050E040E067E070E0CE010196C0D081119E
:1003F000F7CF8091E8008B778093E80081E08093CD
:10040000E9008091E80080FF11C0CE010196D5DEA1
:1004100050E040E068E070E0CE0101965AD08111D2
:10042000F7CF8091E8008E778093E80028960FB68A
:10043000F894DEBF0FBECDBFDF91CF9108958091BC
:10044000050190E021D59FDE7894B1DF54D4FDCF33
:100450009C01DA01832F992783309105B9F060F46C
:100460008130910561F10297E1F489E290E02CEB93
:1004700030E02D933C9308958132910529F18297C4
:1004800081F486E590E027EF30E0F3CFC9019927AA
:10049000213061F08230910579F0E8EBF0E0892BB2
:1004A00039F090E080E030E020E0E3CFEAE9F0E0EE
:1004B000849190E09F01DDCFE4E7F0E0F9CF82E1A5
:1004C00090E025EE30E0D5CF89E090E02EEC30E0F2
:1004D000D0CFAF92BF92CF92DF92FF920F931F9334
:1004E000CF93DF936C01EB018A0195D1F82E811136
:1004F00024C00115110539F0F80180819181C81BD4
:10050000D90BC80ED91EB12CA12C2097B1F0809127
:10051000E80085FD22C08091E8008E778093E80096
:10052000EAD301151105A1F0F80180819181A80E8F
:10053000B91EB182A08285E0F82E8F2DDF91CF9178
:100540001F910F91FF90DF90CF90BF90AF900895D3
:1005500062D18823D1F2F82EF0CFF60181916F019C
:100560008093F1002197FFEFAF1ABF0ACECFAF9271
:10057000BF92CF92DF92FF920F931F93CF93DF939F
:100580006C01EB018A0147D1F82E811124C00115BD
:10059000110539F0F80180819181C81BD90BC80E73
:1005A000D91EB12CA12C2097B1F08091E80085FDD7
:1005B00022C08091E8008B778093E8009CD30115DE
:1005C0001105A1F0F80180819181A80EB91EB182B8
:1005D000A08285E0F82E8F2DDF91CF911F910F9192
:1005E000FF90DF90CF90BF90AF90089514D18823F3
:1005F000D1F2F82EF0CF8091F100F60181936F01D6
:100600002197FFEFAF1ABF0ACECFFC01CB0120919B
:100610001E0230911F022617370790F0009729F429
:100620002091E8002E772093E80040E0009751F4F5
:10063000411108C08091E80082FF30C080E0089539
:10064000C901F3CF209117022223A1F12530A1F196
:100650002091E80023FD2CC02091E80022FDEACF84
:100660002091E80020FFE2CF2091F20030E00097D7
:1006700019F02034310558F041E02034310509F0FB
:1006800040E02091E8002E772093E800CFCF419101
:100690004093F10001972F5F3F4FE9CF8091170200
:1006A000882341F0853041F08091E80083FFC2CF7C
:1006B00081E0089582E0089583E00895FC01CB0174
:1006C00020911E0230911F022617370790F00097E5
:1006D00029F42091E8002E772093E80040E000976D
:1006E00051F4411108C08091E80082FF31C080E0E0
:1006F0000895C901F3CF209117022223A9F12530D3
:10070000A9F12091E80023FD2DC02091E80022FDF1
:10071000EACF2091E80020FFE2CF2091F20030E004
:10072000009719F02034310558F041E020343105AC
:1007300009F040E02091E8002E772093E800CFCF29
:1007400044914093F100319601972F5F3F4FE8CFDE
:1007500080911702882341F0853041F08091E800B4
:1007600083FFC1CF81E0089582E0089583E008957A
:10077000982F953028F08F708093E90081E00895DC
:100780009093E900242F762F50E0981731F0709164
:10079000EC002091ED005091F00021FD02C09F5F20
:1007A000E8CF3091EB003E7F3093EB003091ED00CD
:1007B0003D7F3093ED003091EB0031603093EB00E2
:1007C0007093EC002093ED005093F0002091EE0028
:1007D00027FDE5CF80E008958091180287FF13C0C0
:1007E0008091E80082FF06C08091E8008B778093BB
:1007F000E80004C0809117028111F2CF0895809122
:1008000017028823D9F38091E80080FFF8CF809108
:10081000E8008E77ECCF2091E4003091E50095E67A
:10082000A9012091EC00822F817020FF06C08091E9
:10083000E80080FF06C080E008952091E80022FDD6
:100840001AC080911702882389F0853089F0809141
:10085000EB0085FD0FC02091E4003091E5004217C8
:100860005307F9F29150E1F684E0089582E008958B
:1008700083E0089581E0089541D043D08091D8006D
:100880008F778093D8008091D80080688093D800BB
:100890008091D8008F7D8093D80084E089BD86E068
:1008A00089BD09B400FEFDCF109217021092130209
:1008B000109215021092140242E360E080E058DFCB
:1008C0008091E1008E7F8093E1008091E200816061
:1008D0008093E2008091E20088608093E200809142
:1008E000E0008E7F8093E0000895E3E6F0E08081F1
:1008F0008E7F808381E080931602BECF1092E2004B
:1009000008951092E10008951F920F920FB60F9272
:1009100011242F933F934F935F936F937F938F9304
:100920009F93AF93BF93EF93FF938091E10082FF7A
:100930000AC08091E20082FF06C08091E1008B7FB7
:100940008093E100D7D18091E10080FF17C08091B2
:10095000E20080FF13C08091E2008E7F8093E2006E
:100960008091E20080618093E2008091D8008062F3
:100970008093D80019BC1092170215DC8091E10019
:1009800084FF27C08091E20084FF23C084E089BDFA
:1009900086E089BD09B400FEFDCF8091D8008F7D2F
:1009A0008093D8008091E1008F7E8093E100809158
:1009B000E2008F7E8093E2008091E200816080936C
:1009C000E200809113028823D9F184E0809317021A
:1009D000E9DB8091E10083FF22C08091E20083FF88
:1009E0001EC08091E100877F8093E10082E08093C8
:1009F0001702109213028091E1008E7F8093E10034
:100A00008091E2008E7F8093E2008091E20080611D
:100A10008093E20042E360E080E0AADE6BD1FF91C8
:100A2000EF91BF91AF919F918F917F916F915F9166
:100A30004F913F912F910F900FBE0F901F901895DF
:100A40008091E30087FD02C081E0C0CF83E0BECF8C
:100A50001F93CF93DF93CDB7DEB7AA970FB6F89465
:100A6000DEBF0FBECDBF88E192E0FC010196209170
:100A7000F100208322E080329207B9F79DDB80915C
:100A8000E80083FF10C08091180290911902953000
:100A900009F4BCC000F5292F2D7F213009F486C050
:100AA000992309F45EC08091E80083FF0AC0809119
:100AB000E800877F8093E8008091EB00806280935C
:100AC000EB00AA960FB6F894DEBF0FBECDBFDF9144
:100AD000CF911F910895983009F4CDC0993009F451
:100AE000D7C0963001F780588230E8F680911A021C
:100AF00090911B028C3D23E0920709F0A9C083E08E
:100B00008A838AE289834FB7F894DE01139620E046
:100B10003EE051E2E32FF0E050935700E49120FFD4
:100B200003C0E295EF703F5FEF708E2F90E0EA30E8
:100B300008F48CC0C7968D939D932F5F243151F795
:100B40004FBF8091E800877F8093E8006AE270E001
:100B5000CE0101965ADD8091E8008B778093E80002
:100B6000A2CF803881F0823809F09DCF80911C029D
:100B70008F708093E9008091EB0085FB882780F9D6
:100B80001092E90006C08091140290911502911113
:100B900082609091E800977F9093E8008093F10045
:100BA0001092F1008091E8008E77A0C0882309F4AC
:100BB0008DC0823009F077CF80911A02811191C0E7
:100BC00080911C028F7009F46ECF8093E900209110
:100BD000EB0020FF86C0933031F48091EB008062FF
:100BE0008093EB007EC09091EB0090619093EB00BE
:100BF00021E030E001C0220F8A95EAF72093EA0055
:100C00001092EA008091EB008860EACF81114BCF0F
:100C100010911A021F778091E3008078812B8093D6
:100C2000E3008091E800877F8093E800D5DD809124
:100C3000E80080FFFCCF8091E30080688093E300B0
:100C400082E0111183E0809317022DCFC09673CFFD
:100C5000AE014F5F5F4F60911C02FADBBC01892B34
:100C600009F421CF8091E800877F8093E800898193
:100C70009A8124DD70CF803809F015CF8091E8008B
:100C8000877F8093E800809113028093F1008ACFE0
:100C9000811109CF90911A02923008F004CF80910F
:100CA000E800877F8093E8009093130295DD8091A0
:100CB0001302882311F084E005C08091E30087FDD2
:100CC000FACF81E0809317026FDAEDCE80911A029D
:100CD000813009F0E8CE81E0933009F080E0809324
:100CE00015021092E9008091E800877F8093E80068
:100CF00073DDD9CE0895CF9380911702882399F0A0
:100D0000C091E900CF709091EC00892F817090FD27
:100D100080E8C82B1092E9008091E80083FD98DEFE
:100D2000CF70C093E900CF9108950024552704C0E7
:100D3000080E591F880F991F009729F0769567951F
:100D4000B8F37105B9F7802D952F0895991B79E0B7
:100D500004C0991F961708F0961B881F7A95C9F74B
:100D60008095089597FB072E16F4009406D077FD22
:100D700008D00BD007FC05D03EF4909581959F4F8D
:100D80000895709561957F4F0895AA1BBB1B51E193
:100D900007C0AA1FBB1FA617B70710F0A61BB70BEB
:100DA000881F991F5A95A9F780959095BC01CD0190
:100DB0000895CF92DF92EF92FF92CF93DF93CDB75A
:100DC000DEB72A970FB6F894DEBF0FBECDBF898776
:100DD0009A87A985BA858D919D910D90BC91A02D82
:100DE00089839A83AB83BC83892B8A2B8B2B41F419
:100DF00084E299EDABE5B7E089839A83AB83BC834A
:100E000069817A818B819C812DE133EF41E050E053
:100E10005FD02D833E834F83588769837A838B838A
:100E20009C8327EA31E440E050E039D06B017C013B
:100E30002CEE34EF4FEF5FEF6D817E818F819885CF
:100E40002ED0DC01CB018C0D9D1DAE1DBF1DB7FF4B
:100E500003C00197A109B048E985FA858083918391
:100E6000A283B3839F772A960FB6F894DEBF0FBE96
:100E7000CDBFDF91CF91FF90EF90DF90CF9008959D
:100E800098CF86E091E095CFB0E0A0E08093060196
:100E900090930701A0930801B09309010895EE27EC
:100EA000FF27AA27BB2708C0A20FB31FE41FF51F07
:100EB000220F331F441F551F969587957795679589
:100EC00098F37040A9F7009799F7BD01CF010895F5
:100ED000052E97FB16F400940FD057FD05D014D0C3
:100EE00007FC02D046F408C05095409530952195F6
:100EF0003F4F4F4F5F4F0895909580957095619546
:100F00007F4F8F4F9F4F0895A1E21A2EAA1BBB1B44
:100F1000FD010DC0AA1FBB1FEE1FFF1FA217B307C5
:100F2000E407F50720F0A21BB30BE40BF50B661FDB
:100F3000771F881F991F1A9469F76095709580959F
:100F400090959B01AC01BD01CF010895F894FFCFAE
:100F50000501030209A901000000151E00121E0070
:100F6000082800092800130100153C000750000F55
:100F70008403090100150600098C0008010015C84A
:100F8000000F3300080100151E0008280A000200A7
:100F900008010015140008320015010008010015B1
:100FA000F401132800012800080100150A000801B7
:100FB00000150A00090100152800080100150A00A3
:100FC000130100152800000100150A000801001592
:100FD0005E01080100150A0008010015FA00032847
:100FE00000150A00012800150A0008010015640018
:100FF00008010015960008010015140013010015E2
:10100000280008010015C8000F2300010100150188
:101010000001010015010001010015010008010097
:10102000150100000100150100000100150100007C
:101030000100150100020100150100000100150169
:10104000000001001501000001001501000301006E
:041050001501000086
:00000001FF
