:100000004FC1000068C1000066C1000064C100006B
:1000100062C1000060C100005EC100005CC1000060
:100020005AC1000058C1000056C100006CC5000054
:1000300052C1000050C100004EC100004CC1000080
:100040004AC1000048C1000046C1000044C1000090
:1000500042C1000040C100003EC100003CC10000A0
:100060003AC1000038C1000036C1000034C10000B0
:1000700032C10000151E0009010015010013010026
:10008000151E000101001501000301001501000308
:100090000100150100030100150100030100150115
:1000A00000080100150100015000150100080100C1
:1000B00015010001010015010001010015010001F9
:1000C00001001501000101001501000801001508DB
:1000D00000080100150400080100150800010100D6
:1000E00015010001010015010008010015070003BA
:1000F00001001501000301001501000001001501B8
:1001000000030100150100030100150100030100B7
:10011000150100030100150100030100150100088D
:100120000100150400130100151E00130100151E27
:100130000009200015010008C8001501000814007E
:10014000150100080600150100081E001501000831
:100150007800150100100100150A00100100150AB1
:1001600000100100150A00100100150A001001001E
:10017000150A00100100150A00100100150A0010F0
:100180000100150A00100100150A00100100150AEF
:1001900000080C00150100080600150100081E00EB
:1001A000152C011301001528000601001508000890
:1001B000010015780008010015320008010015D073
:1001C0000208010015CC01240350004F004B004BE6
:1001D0000045004E00200043004F004E00540052E6
:1001E000004F004C004C004500520000001C03482A
:1001F000004F0052004900200043004F002E002C09
:10020000004C00540044002E0000000403090409BF
:1002100002290001010080FA090400000203000025
:1002200000092111010001225600070502034000C8
:10023000050705810340000512010002000000408F
:100240000D0F920000010102000105010905A10145
:1002500015002501350045017501951005091901A5
:100260002910810205012507463B017504950165AA
:10027000140939814265009501810126FF0046FF7E
:1002800000093009310932093575089504810206E3
:1002900000FF0920950181020A212695089102C0DC
:1002A00011241FBECFEFD2E0DEBFCDBF11E0A0E032
:1002B000B1E0EEEAFFE002C005900D92A430B10774
:1002C000D9F721E0A4E0B1E001C01D92A532B20748
:1002D000E1F7B8D16AC694CE84B7877F84BF0FB6E2
:1002E000F894A895809160008861809360001092D6
:1002F00060000FBEF9C30895089542E360EC82E008
:1003000036D342E361EC81E032C30895CF93DF93AB
:10031000EC0198E0FE01292F11922A95E9F780E877
:100320008B838C838D838E839A8380910A01909135
:100330000B0118161906A4F488E0EDE0F1E0DE01E7
:1003400001900D928A95E1F780910A0190910B013D
:10035000019790930B0180930A01DF91CF9108954B
:1003600080910C01882369F08130B9F388E0FE01A7
:10037000ADE0B1E001900D928A95E1F782E090E066
:10038000E8CF80910601909107010196C9F580910F
:100390000401909105010196909305018093040159
:1003A0008130910569F483E090E090930701809398
:1003B000060182E290E0909301018093000120C049
:1003C0008230910549F48BE390E09093070180938C
:1003D00006018EE390E0EFCF8231910509F05EC017
:1003E0008BE490E0909307018093060180E790E012
:1003F0009093010180930001109205011092040175
:10040000809106019091070163E070E08DD5BC01F9
:100410006C587F4F43E050E085E191E0BDD580917D
:100420001501883009F4BAC008F097C0833009F488
:10043000ACC008F089C0882309F4A2C0813009F457
:10044000A1C0809108019091090101969093090142
:100450008093080120911601309117012817390760
:1004600008F084CF80910601909107010196909346
:100470000701809306011092090110920801209152
:10048000000130910101281739070CF06FCF8FEF71
:100490009FEF909307018093060168CF65E070E0BD
:1004A00054D58330910549F483E490E0909307019B
:1004B000809306018AE490E07ECF8430910549F470
:1004C00083E090E090930701809306018EE190E035
:1004D00072CF009749F483E290E0909307018093F4
:1004E000060188E290E067CF8130910509F580919F
:1004F0000201811109C08DE290E090930701809381
:10050000060188E390E057CF813049F489E290E01A
:10051000909307018093060184E390E04CCF89E239
:1005200090E0909307018093060186E390E043CF2B
:10053000029709F065CF89E390E0909307018093DB
:10054000060182E490E037CF863011F1873009F060
:1005500078CF8881998181601EC0823139F148F459
:10056000893001F1803109F06CCF888199819460E4
:1005700012C0833109F065CF8881998190610BC0E9
:100580001C825FCF8FEF8C835CCF8FEF8B8359CF33
:100590008881998188609983888353CF88819981E4
:1005A0008460F9CF888199818260F5CF88819981B3
:1005B0008063F1CFCF93DF93CDB7DEB728970FB627
:1005C000F894DEBF0FBECDBF80911C01843089F549
:1005D00082E08093E9008091E80082FF12C0809160
:1005E000E80085FF09C050E040E067E070E0CE0120
:1005F0000196BCD08111F7CF8091E8008B77809372
:10060000E80081E08093E9008091E80080FF11C05C
:10061000CE0101967BDE50E040E068E070E0CE0164
:10062000019656D08111F7CF8091E8008E778093A4
:10063000E80028960FB6F894DEBF0FBECDBFDF915D
:10064000CF91089549DE7894B5DF54D4FDCF9C0155
:10065000DA01832F992783309105B9F060F4813056
:10066000910561F10297E1F489E290E02FE032E038
:100670002D933C9308958132910529F1829781F45D
:1006800086E590E02AE432E0F3CFC90199272130D2
:1006900061F08230910579F0EBE0F2E0892B39F0DE
:1006A00090E080E030E020E0E3CFEDEEF1E08491F7
:1006B00090E09F01DDCFE7ECF1E0F9CF82E190E03F
:1006C00028E332E0D5CF89E090E021E232E0D0CFDC
:1006D000AF92BF92CF92DF92FF920F931F93CF936F
:1006E000DF936C01EB018A0195D1F82E811124C0B2
:1006F0000115110539F0F80180819181C81BD90BD2
:10070000C80ED91EB12CA12C2097B1F08091E80021
:1007100085FD22C08091E8008E778093E800EAD3BF
:1007200001151105A1F0F80180819181A80EB91E73
:10073000B182A08285E0F82E8F2DDF91CF911F919D
:100740000F91FF90DF90CF90BF90AF90089562D14E
:100750008823D1F2F82EF0CFF60181916F018093BA
:10076000F1002197FFEFAF1ABF0ACECFAF92BF9231
:10077000CF92DF92FF920F931F93CF93DF936C0181
:10078000EB018A0147D1F82E811124C00115110512
:1007900039F0F80180819181C81BD90BC80ED91E90
:1007A000B12CA12C2097B1F08091E80085FD22C0EA
:1007B0008091E8008B778093E8009CD301151105A8
:1007C000A1F0F80180819181A80EB91EB182A082AA
:1007D00085E0F82E8F2DDF91CF911F910F91FF9023
:1007E000DF90CF90BF90AF90089514D18823D1F2BD
:1007F000F82EF0CF8091F100F60181936F012197DF
:10080000FFEFAF1ABF0ACECFFC01CB01209123012D
:10081000309124012617370790F0009729F4209192
:10082000E8002E772093E80040E0009751F4411152
:1008300008C08091E80082FF30C080E00895C901BF
:10084000F3CF20911C012223A1F12530A1F12091A9
:10085000E80023FD2CC02091E80022FDEACF209182
:10086000E80020FFE2CF2091F20030E0009719F07D
:100870002034310558F041E02034310509F040E0E2
:100880002091E8002E772093E800CFCF419140934C
:10089000F10001972F5F3F4FE9CF80911C01882322
:1008A00041F0853041F08091E80083FFC2CF81E0C4
:1008B000089582E0089583E00895FC01CB01209122
:1008C0002301309124012617370790F0009729F46F
:1008D0002091E8002E772093E80040E0009751F443
:1008E000411108C08091E80082FF31C080E0089586
:1008F000C901F3CF20911C012223A9F12530A9F1D0
:100900002091E80023FD2DC02091E80022FDEACFD0
:100910002091E80020FFE2CF2091F20030E0009724
:1009200019F02034310558F041E02034310509F048
:1009300040E02091E8002E772093E800CFCF44914B
:100940004093F100319601972F5F3F4FE8CF8091A0
:100950001C01882341F0853041F08091E80083FF3D
:10096000C1CF81E0089582E0089583E00895982F33
:10097000953028F08F708093E90081E0089590937E
:10098000E900242F762F50E0981731F07091EC0099
:100990002091ED005091F00021FD02C09F5FE8CF53
:1009A0003091EB003E7F3093EB003091ED003D7FC6
:1009B0003093ED003091EB0031603093EB00709399
:1009C000EC002093ED005093F0002091EE0027FD05
:1009D000E5CF80E0089580911D0187FF13C08091CD
:1009E000E80082FF06C08091E8008B778093E800E2
:1009F00004C080911C018111F2CF089580911C01E7
:100A00008823D9F38091E80080FFF8CF8091E80037
:100A10008E77ECCF2091E4003091E50095E6A901B6
:100A20002091EC00822F817020FF06C08091E800A9
:100A300080FF06C080E008952091E80022FD1AC0E2
:100A400080911C01882389F0853089F08091EB002A
:100A500085FD0FC02091E4003091E5004217530757
:100A6000F9F29150E1F684E0089582E0089583E080
:100A7000089581E0089541D043D08091D8008F77C8
:100A80008093D8008091D80080688093D8008091AE
:100A9000D8008F7D8093D80084E089BD86E089BD31
:100AA00009B400FEFDCF10921C01109218011092A3
:100AB0001A011092190142E360E080E058DF809152
:100AC000E1008E7F8093E1008091E200816080935D
:100AD000E2008091E20088608093E2008091E00073
:100AE0008E7F8093E0000895E3E6F0E080818E7FC2
:100AF000808381E080931B01BECF1092E2000895B5
:100B00001092E10008951F920F920FB60F921124D8
:100B10002F933F934F935F936F937F938F939F9305
:100B2000AF93BF93EF93FF938091E10082FF0AC0E0
:100B30008091E20082FF06C08091E1008B7F80936C
:100B4000E100D7D18091E10080FF17C08091E200E1
:100B500080FF13C08091E2008E7F8093E20080913D
:100B6000E20080618093E2008091D80080628093EF
:100B7000D80019BC10921C01BFDB8091E10084FFFA
:100B800027C08091E20084FF23C084E089BD86E015
:100B900089BD09B400FEFDCF8091D8008F7D809380
:100BA000D8008091E1008F7E8093E1008091E20087
:100BB0008F7E8093E2008091E20081608093E2006A
:100BC000809118018823D9F184E080931C0193DB84
:100BD0008091E10083FF22C08091E20083FF1EC06C
:100BE0008091E100877F8093E10082E080931C0187
:100BF000109218018091E1008E7F8093E100809136
:100C0000E2008E7F8093E2008091E2008061809319
:100C1000E20042E360E080E0AADE6BD1FF91EF9159
:100C2000BF91AF919F918F917F916F915F914F9104
:100C30003F912F910F900FBE0F901F9018958091AC
:100C4000E30087FD02C081E0C0CF83E0BECF1F93E9
:100C5000CF93DF93CDB7DEB7AA970FB6F894DEBF78
:100C60000FBECDBF8DE191E0FC0101962091F10016
:100C7000208321E085329207B9F747DB8091E800B5
:100C800083FF10C080911D0190911E01953009F4E1
:100C9000BCC000F5292F2D7F213009F486C099238F
:100CA00009F45EC08091E80083FF0AC08091E800EB
:100CB000877F8093E8008091EB0080628093EB0057
:100CC000AA960FB6F894DEBF0FBECDBFDF91CF91CD
:100CD0001F910895983009F4CDC0993009F4D7C018
:100CE000963001F780588230E8F680911F0190918C
:100CF00020018C3D23E0920709F0A9C083E08A839C
:100D00008AE289834FB7F894DE01139620E03EE033
:100D100051E2E32FF0E050935700E49120FF03C02D
:100D2000E295EF703F5FEF708E2F90E0EA3008F4AD
:100D30008CC0C7968D939D932F5F243151F74FBF81
:100D40008091E800877F8093E8006AE270E0CE013E
:100D500001965ADD8091E8008B778093E800A2CF5E
:100D6000803881F0823809F09DCF809121018F7009
:100D70008093E9008091EB0085FB882780F9109231
:100D8000E90006C08091190190911A0191118260C9
:100D90009091E800977F9093E8008093F100109283
:100DA000F1008091E8008E77A0C0882309F48DC0FF
:100DB000823009F077CF80911F01811191C080911D
:100DC00021018F7009F46ECF8093E9002091EB0030
:100DD00020FF86C0933031F48091EB0080628093D5
:100DE000EB007EC09091EB0090619093EB0021E0CE
:100DF00030E001C0220F8A95EAF72093EA001092B2
:100E0000EA008091EB008860EACF81114BCF10910E
:100E10001F011F778091E3008078812B8093E3008E
:100E20008091E800877F8093E800D5DD8091E8001D
:100E300080FFFCCF8091E30080688093E30082E034
:100E4000111183E080931C012DCFC09673CFAE01AA
:100E50004F5F5F4F60912101FADBBC01892B09F4E0
:100E600021CF8091E800877F8093E80089819A8173
:100E700024DD70CF803809F015CF8091E800877F9E
:100E80008093E800809118018093F1008ACF81114E
:100E900009CF90911F01923008F004CF8091E800B3
:100EA000877F8093E8009093180195DD8091180169
:100EB000882311F084E005C08091E30087FDFACF1C
:100EC00081E080931C0119DAEDCE80911F01813001
:100ED00009F0E8CE81E0933009F080E080931A01B8
:100EE0001092E9008091E800877F8093E80073DD2D
:100EF000D9CE0895CF9380911C01882399F0C09199
:100F0000E900CF709091EC00892F817090FD80E80E
:100F1000C82B1092E9008091E80083FD98DECF7025
:100F2000C093E900CF9108950024552704C0080E0E
:100F3000591F880F991F009729F076956795B8F388
:100F40007105B9F7802D952F089597FB072E16F49C
:100F5000009406D077FD08D00BD007FC05D03EF4F6
:100F6000909581959F4F0895709561957F4F089555
:100F7000AA1BBB1B51E107C0AA1FBB1FA617B707BF
:100F800010F0A61BB70B881F991F5A95A9F78095DB
:100F90009095BC01CD010895FB01DC0102C00590D4
:0E0FA0000D9241505040D8F70895F894FFCFBD
:040FAE00020002003B
:00000001FF
