:10000000A6C00000BFC00000BDC00000BBC0000013
:10001000B9C00000B7C00000B5C00000B3C0000008
:10002000B1C00000AFC00000ADC00000C7C40000F8
:10003000A9C00000A7C00000A5C00000A3C0000028
:10004000A1C000009FC000009DC000009BC0000038
:1000500099C0000097C0000095C0000093C0000048
:1000600091C000008FC000008DC000008BC0000058
:1000700089C00000240350004F004B004B00450096
:100080004E00200043004F004E00540052004F002D
:100090004C004C004500520000001C0348004F007B
:1000A00052004900200043004F002E002C004C005D
:1000B000540044002E000000040309040902290032
:1000C00001010080FA090400000203000000092178
:1000D0001101000122560007050203400005070533
:1000E000810340000512010002000000400D0F9244
:1000F0000000010102000105010905A1011500250B
:100100000135004501750195100509190129108176
:100110000205012507463B0175049501651409395F
:10012000814265009501810126FF0046FF000930EC
:100130000931093209357508950481020600FF0965
:1001400020950181020A212695089102C000112400
:100150001FBECFEFD2E0DEBFCDBF11E0A0E0B1E027
:10016000E4E0FEE002C005900D92A63BB107D9F78E
:1001700021E0A6EBB1E001C01D92A93DB207E1F775
:10018000BCD13EC63DCF84B7877F84BF0FB6F894FD
:10019000A895809160008861809360001092600053
:1001A0000FBEFDC30895089542E360EC82E03AD3A8
:1001B00042E361EC81E036C30895CF93DF93DC0125
:1001C00098E0FD01292F11922A95E9F780E813960E
:1001D0008C93139714968C93149715968C9315976C
:1001E00016968C93169712969C9312978091C10144
:1001F0009091C201181619069CF488E0E4ECF1E035
:1002000001900D928A95E1F78091C1019091C20110
:1002100001979093C2018093C101DF91CF9108951E
:100220008091C301882369F08130B9F388E0FD0132
:10023000A4ECB1E001900D928A95E1F782E090E0A4
:10024000E8CF8091B7019091B801019609F076C08E
:100250008091060190910701069721F481E0809337
:10026000C301E4CF8091040190910501873091058D
:100270000CF44CC0809102019091030185309105EE
:10028000B9F520910001309101012F5F3F4F30936C
:10029000010120930001409108015091090142178A
:1002A00053079CF49093B8018093B70186E090E0E7
:1002B000909307018093060181E090E090930501FF
:1002C000809304011092B60139C087E190E09093C9
:1002D000B8018093B7018AE290E090930701809380
:1002E000060181E090E09093030180930201E4CF46
:1002F0002DE230E03093B8012093B70128E330E0DD
:1003000030930701209306010196EDCF2091B601AD
:10031000211162C029E030E03093B8012093B70189
:1003200026E130E030930701209306010196909377
:1003300005018093040181E08093B6018091B701AB
:100340009091B80163E070E04AD5FC01E65FFE4F92
:100350008081883009F477C008F053C0823009F4F6
:1003600069C008F046C0882309F460C0813009F4F0
:1003700065C0E091B901F091BA013196F093BA01EC
:10038000E093B9012091B7013091B801C90163E050
:1003900070E025D5EC01C65FDE4F89819A818E170A
:1003A0009F0708F043CF2F5F3F4F3093B801209352
:1003B000B7011092BA011092B90180910601909193
:1003C0000701821793070CF031CF8FEF9FEF9093C7
:1003D000B8018093B7012ACF8BE290E09093B801E7
:1003E0008093B7018CE290E090930701809306011F
:1003F00069CF833009F0BDCF8FEF13968C9313979D
:10040000B8CF823169F150F4893029F18B3009F08D
:10041000B0CF8D919C911197806219C0833109F002
:10042000A8CF8D919C911197906111C014961C9248
:1004300014979FCF13961C9213979BCF8FEF149610
:100440008C93149796CF8D919C91119784601196FF
:100450009C938E938ECF8D919C9111978260F7CF54
:100460008D919C9111978063F2CFCF93DF93CDB79D
:10047000DEB728970FB6F894DEBF0FBECDBF8091D0
:10048000D001843089F582E08093E9008091E80012
:1004900082FF12C08091E80085FF09C050E040E073
:1004A00067E070E0CE010196BCD08111F7CF80915A
:1004B000E8008B778093E80081E08093E9008091E9
:1004C000E80080FF11C0CE01019677DE50E040E0E9
:1004D00068E070E0CE01019656D08111F7CF80918F
:1004E000E8008E778093E80028960FB6F894DEBF78
:1004F0000FBECDBFDF91CF91089545DE7894B5DF73
:1005000054D4FDCF9C01DA01832F992783309105C4
:10051000B9F060F48130910561F10297E1F489E26C
:1005200090E02CEB30E02D933C93089581329105BF
:1005300029F1829781F486E590E027EF30E0F3CF50
:10054000C9019927213061F08230910579F0E8EBFB
:10055000F0E0892B39F090E080E030E020E0E3CF5C
:10056000EAE9F0E0849190E09F01DDCFE4E7F0E07C
:10057000F9CF82E190E025EE30E0D5CF89E090E040
:100580002EEC30E0D0CFAF92BF92CF92DF92FF92AD
:100590000F931F93CF93DF936C01EB018A0195D1E9
:1005A000F82E811124C00115110539F0F801808160
:1005B0009181C81BD90BC80ED91EB12CA12C209734
:1005C000B1F08091E80085FD22C08091E8008E772F
:1005D0008093E800EAD301151105A1F0F8018081AC
:1005E0009181A80EB91EB182A08285E0F82E8F2DD0
:1005F000DF91CF911F910F91FF90DF90CF90BF902F
:10060000AF90089562D18823D1F2F82EF0CFF60191
:1006100081916F018093F1002197FFEFAF1ABF0A1C
:10062000CECFAF92BF92CF92DF92FF920F931F93E4
:10063000CF93DF936C01EB018A0147D1F82E811132
:1006400024C00115110539F0F80180819181C81B82
:10065000D90BC80ED91EB12CA12C2097B1F08091D6
:10066000E80085FD22C08091E8008B778093E80048
:100670009CD301151105A1F0F80180819181A80E8C
:10068000B91EB182A08285E0F82E8F2DDF91CF9127
:100690001F910F91FF90DF90CF90BF90AF90089582
:1006A00014D18823D1F2F82EF0CF8091F100F60119
:1006B00081936F012197FFEFAF1ABF0ACECFFC01E4
:1006C000CB012091D7013091D8012617370790F040
:1006D000009729F42091E8002E772093E80040E06D
:1006E000009751F4411108C08091E80082FF30C0AA
:1006F00080E00895C901F3CF2091D0012223A1F118
:100700002530A1F12091E80023FD2CC02091E800C4
:1007100022FDEACF2091E80020FFE2CF2091F200F5
:1007200030E0009719F02034310558F041E02034D2
:10073000310509F040E02091E8002E772093E80091
:10074000CFCF41914093F10001972F5F3F4FE9CF09
:100750008091D001882341F0853041F08091E800FC
:1007600083FFC2CF81E0089582E0089583E0089579
:10077000FC01CB012091D7013091D8012617370712
:1007800090F0009729F42091E8002E772093E8005C
:1007900040E0009751F4411108C08091E80082FFC9
:1007A00031C080E00895C901F3CF2091D001222308
:1007B000A9F12530A9F12091E80023FD2DC0209159
:1007C000E80022FDEACF2091E80020FFE2CF20914F
:1007D000F20030E0009719F02034310558F041E084
:1007E0002034310509F040E02091E8002E77209375
:1007F000E800CFCF44914093F100319601972F5FED
:100800003F4FE8CF8091D001882341F0853041F0FF
:100810008091E80083FFC1CF81E0089582E00895D0
:1008200083E00895982F953028F08F708093E90029
:1008300081E008959093E900242F762F50E09817D7
:1008400031F07091EC002091ED005091F00021FD0D
:1008500002C09F5FE8CF3091EB003E7F3093EB000A
:100860003091ED003D7F3093ED003091EB00316031
:100870003093EB007093EC002093ED005093F00068
:100880002091EE0027FDE5CF80E008958091D10111
:1008900087FF13C08091E80082FF06C08091E800C6
:1008A0008B778093E80004C08091D0018111F2CF52
:1008B00008958091D0018823D9F38091E80080FFCA
:1008C000F8CF8091E8008E77ECCF2091E400309152
:1008D000E50095E6A9012091EC00822F817020FFB0
:1008E00006C08091E80080FF06C080E00895209156
:1008F000E80022FD1AC08091D001882389F085305C
:1009000089F08091EB0085FD0FC02091E4003091CB
:10091000E50042175307F9F29150E1F684E008959B
:1009200082E0089583E0089581E0089541D043D0A6
:100930008091D8008F778093D8008091D80080680C
:100940008093D8008091D8008F7D8093D80084E078
:1009500089BD86E089BD09B400FEFDCF1092D001AB
:100960001092CC011092CE011092CD0142E360E0D2
:1009700080E058DF8091E1008E7F8093E1008091DC
:10098000E20081608093E2008091E20088608093C1
:10099000E2008091E0008E7F8093E0000895E3E61E
:1009A000F0E080818E7F808381E08093CF01BECF95
:1009B0001092E20008951092E10008951F920F92A4
:1009C0000FB60F9211242F933F934F935F936F9322
:1009D0007F938F939F93AF93BF93EF93FF938091F8
:1009E000E10082FF0AC08091E20082FF06C0809190
:1009F000E1008B7F8093E100D7D18091E10080FFFF
:100A000017C08091E20080FF13C08091E2008E7FCA
:100A10008093E2008091E20080618093E200809107
:100A2000D80080628093D80019BC1092D001BBDB43
:100A30008091E10084FF27C08091E20084FF23C001
:100A400084E089BD86E089BD09B400FEFDCF8091B8
:100A5000D8008F7D8093D8008091E1008F7E8093B5
:100A6000E1008091E2008F7E8093E2008091E200BD
:100A700081608093E2008091CC018823D9F184E0E9
:100A80008093D0018FDB8091E10083FF22C08091B1
:100A9000E20083FF1EC08091E100877F8093E10028
:100AA00082E08093D0011092CC018091E1008E7F92
:100AB0008093E1008091E2008E7F8093E20080913C
:100AC000E20080618093E20042E360E080E0AADE21
:100AD0006BD1FF91EF91BF91AF919F918F917F91DA
:100AE0006F915F914F913F912F910F900FBE0F909B
:100AF0001F9018958091E30087FD02C081E0C0CF70
:100B000083E0BECF1F93CF93DF93CDB7DEB7AA9715
:100B10000FB6F894DEBF0FBECDBF81ED91E0FC01B2
:100B200001962091F100208321E0893D9207B9F7D9
:100B300043DB8091E80083FF10C08091D101909148
:100B4000D201953009F4BCC000F5292F2D7F21304A
:100B500009F486C0992309F45EC08091E80083FF00
:100B60000AC08091E800877F8093E8008091EB00C5
:100B700080628093EB00AA960FB6F894DEBF0FBE9A
:100B8000CDBFDF91CF911F910895983009F4CDC06A
:100B9000993009F4D7C0963001F780588230E8F6D2
:100BA0008091D3019091D4018C3D23E0920709F00C
:100BB000A9C083E08A838AE289834FB7F894DE0173
:100BC000139620E03EE051E2E32FF0E0509357000F
:100BD000E49120FF03C0E295EF703F5FEF708E2F2E
:100BE00090E0EA3008F48CC0C7968D939D932F5FF8
:100BF000243151F74FBF8091E800877F8093E80050
:100C00006AE270E0CE0101965ADD8091E8008B77B0
:100C10008093E800A2CF803881F0823809F09DCF20
:100C20008091D5018F708093E9008091EB0085FB66
:100C3000882780F91092E90006C08091CD0190913B
:100C4000CE01911182609091E800977F9093E80027
:100C50008093F1001092F1008091E8008E77A0C09F
:100C6000882309F48DC0823009F077CF8091D301B9
:100C7000811191C08091D5018F7009F46ECF80935E
:100C8000E9002091EB0020FF86C0933031F4809181
:100C9000EB0080628093EB007EC09091EB0090614E
:100CA0009093EB0021E030E001C0220F8A95EAF733
:100CB0002093EA001092EA008091EB008860EACF6E
:100CC00081114BCF1091D3011F778091E300807881
:100CD000812B8093E3008091E800877F8093E80078
:100CE000D5DD8091E80080FFFCCF8091E300806833
:100CF0008093E30082E0111183E08093D0012DCF37
:100D0000C09673CFAE014F5F5F4F6091D501FADBA4
:100D1000BC01892B09F421CF8091E800877F809363
:100D2000E80089819A8124DD70CF803809F015CFE1
:100D30008091E800877F8093E8008091CC018093C8
:100D4000F1008ACF811109CF9091D301923008F040
:100D500004CF8091E800877F8093E8009093CC01D6
:100D600095DD8091CC01882311F084E005C080914D
:100D7000E30087FDFACF81E08093D00115DAEDCE54
:100D80008091D301813009F0E8CE81E0933009F001
:100D900080E08093CE011092E9008091E800877F87
:100DA0008093E80073DDD9CE0895CF938091D00170
:100DB000882399F0C091E900CF709091EC00892FC1
:100DC000817090FD80E8C82B1092E9008091E800C6
:100DD00083FD98DECF70C093E900CF910895002481
:100DE000552704C0080E591F880F991F009729F036
:100DF00076956795B8F37105B9F7802D952F08950D
:040E0000F894FFCF94
:100E040001000100010008000200151E001201008B
:100E1400151E0008010015280009010015280013FB
:100E24000100153C00080A0015010000010015012D
:100E340000000100150100081E001501000001005A
:100E4400150100083000150100080100150A000210
:100E54000100150100020100150100020100150145
:100E6400000201001501000201001501000001004B
:100E7400150100000100150100000100150100002A
:100E840001001501000B0100150E000301001501FE
:100E94000002010015010002010015010002010019
:100EA40015010002010015010002010015010001F5
:060EB40001001501000021
:00000001FF
