:10000000A6C00000BFC00000BDC00000BBC0000013
:10001000B9C00000B7C00000B5C00000B3C0000008
:10002000B1C00000AFC00000ADC000007FC4000040
:10003000A9C00000A7C00000A5C00000A3C0000028
:10004000A1C000009FC000009DC000009BC0000038
:1000500099C0000097C0000095C0000093C0000048
:1000600091C000008FC000008DC000008BC0000058
:1000700089C00000240350004F004B004B00450096
:100080004E00200043004F004E00540052004F002D
:100090004C004C004500520000001C0348004F007B
:1000A00052004900200043004F002E002C004C005D
:1000B000540044002E000000040309040902290032
:1000C00001010080FA090400000203000000092178
:1000D0001101000122560007050203400005070533
:1000E000810340000512010002000000400D0F9244
:1000F0000000010102000105010905A1011500250B
:100100000135004501750195100509190129108176
:100110000205012507463B0175049501651409395F
:10012000814265009501810126FF0046FF000930EC
:100130000931093209357508950481020600FF0965
:1001400020950181020A212695089102C000112400
:100150001FBECFEFD2E0DEBFCDBF11E0A0E0B1E027
:10016000E4E8FDE002C005900D92AA38B107D9F786
:1001700021E0AAE8B1E001C01D92AE3AB207E1F772
:1001800074D1FEC53DCF84B7877F84BF0FB6F89486
:10019000A895809160008861809360001092600053
:1001A0000FBE80E890E00FB6F894809361009093C2
:1001B00061000FBEACC30895089542E360EC82E095
:1001C000E9D242E361EC81E0E5C20895CF93DF9389
:1001D000DC0198E0FD01892F11928A95E9F780E80A
:1001E00013968C93139714968C93149715968C935F
:1001F000159716968C93169712969C93129780914A
:10020000960190919701181619068CF488E0E9E997
:10021000F1E001900D928A95E1F78091960190911D
:100220009701019790939701809396011BC080914D
:100230009801833039F188F48130B9F0823001F1CE
:100240008823D1F088E0FD01A9E9B1E001900D9289
:100250008A95E1F782E090E0E5CF843009F4BBC0F5
:10026000853081F7DF91CF91089510928F01109220
:100270008E0111961C921E9282E080939801E2CF2B
:1002800083E0FBCF80918E0190918F0163E070E05D
:1002900066D5FC01E050FF4F8081873009F492C0A1
:1002A00008F05EC0833009F47FC008F04BC0813095
:1002B00009F472C0823009F44FC0882309F468C081
:1002C000E0918C01F0918D013196F0938D01E093D6
:1002D0008C0120918E0130918F01C90163E070E0A3
:1002E0003ED5EC01C050DF4F89819A818E179F0760
:1002F00050F42F5F3F4F30938F0120938E01109267
:100300008D0110928C0180918E0190918F018E97BA
:100310000CF498CF87E090E090938F0180938E014A
:1003200010928D0110928C0182E08093980180E8F8
:1003300013968C93139714968C93149715968C930D
:10034000159780CF853069F18630C9F1843009F086
:10035000B7CF15961C92159713961C921397B0CF92
:100360008C3099F168F4893021F18B3029F1883093
:1003700009F0A6CF84E090E011969C938E93A0CFD5
:100380008D3031F1803109F09BCF80E390E0F4CFE4
:1003900014961C92149794CF8FEF14968C93149705
:1003A0008FCF14961C9214978FEF13968C931397FC
:1003B00087CF82E090E0E0CF80E290E0DDCF88E080
:1003C00090E0DACF81E090E0D7CF80E092E0D4CF28
:1003D00080E091E0D1CF85E050CFCF93DF93CDB7D0
:1003E000DEB728970FB6F894DEBF0FBECDBF809161
:1003F000A501843089F582E08093E9008091E800CE
:1004000082FF12C08091E80085FF09C050E040E003
:1004100067E070E0CE010196BCD08111F7CF8091EA
:10042000E8008B778093E80081E08093E900809179
:10043000E80080FF11C0CE010196C8DE50E040E028
:1004400068E070E0CE01019656D08111F7CF80911F
:10045000E8008E778093E80028960FB6F894DEBF08
:100460000FBECDBFDF91CF9108958DDE7894B5DFBB
:100470005CD4FDCF9C01DA01832F9927833091054D
:10048000B9F060F48130910561F10297E1F489E2FD
:1004900090E02CEB30E02D933C9308958132910550
:1004A00029F1829781F486E590E027EF30E0F3CFE1
:1004B000C9019927213061F08230910579F0E8EB8C
:1004C000F0E0892B39F090E080E030E020E0E3CFED
:1004D000EAE9F0E0849190E09F01DDCFE4E7F0E00D
:1004E000F9CF82E190E025EE30E0D5CF89E090E0D1
:1004F0002EEC30E0D0CFAF92BF92CF92DF92FF923E
:100500000F931F93CF93DF936C01EB018A0195D179
:10051000F82E811124C00115110539F0F8018081F0
:100520009181C81BD90BC80ED91EB12CA12C2097C4
:10053000B1F08091E80085FD22C08091E8008E77BF
:100540008093E800F2D301151105A1F0F801808134
:100550009181A80EB91EB182A08285E0F82E8F2D60
:10056000DF91CF911F910F91FF90DF90CF90BF90BF
:10057000AF90089562D18823D1F2F82EF0CFF60122
:1005800081916F018093F1002197FFEFAF1ABF0AAD
:10059000CECFAF92BF92CF92DF92FF920F931F9375
:1005A000CF93DF936C01EB018A0147D1F82E8111C3
:1005B00024C00115110539F0F80180819181C81B13
:1005C000D90BC80ED91EB12CA12C2097B1F0809167
:1005D000E80085FD22C08091E8008B778093E800D9
:1005E000A4D301151105A1F0F80180819181A80E15
:1005F000B91EB182A08285E0F82E8F2DDF91CF91B8
:100600001F910F91FF90DF90CF90BF90AF90089512
:1006100014D18823D1F2F82EF0CF8091F100F601A9
:1006200081936F012197FFEFAF1ABF0ACECFFC0174
:10063000CB012091AC013091AD012617370790F026
:10064000009729F42091E8002E772093E80040E0FD
:10065000009751F4411108C08091E80082FF30C03A
:1006600080E00895C901F3CF2091A5012223A1F1D3
:100670002530A1F12091E80023FD2CC02091E80055
:1006800022FDEACF2091E80020FFE2CF2091F20086
:1006900030E0009719F02034310558F041E0203463
:1006A000310509F040E02091E8002E772093E80022
:1006B000CFCF41914093F10001972F5F3F4FE9CF9A
:1006C0008091A501882341F0853041F08091E800B8
:1006D00083FFC2CF81E0089582E0089583E008950A
:1006E000FC01CB012091AC013091AD0126173707F9
:1006F00090F0009729F42091E8002E772093E800ED
:1007000040E0009751F4411108C08091E80082FF59
:1007100031C080E00895C901F3CF2091A5012223C3
:10072000A9F12530A9F12091E80023FD2DC02091E9
:10073000E80022FDEACF2091E80020FFE2CF2091DF
:10074000F20030E0009719F02034310558F041E014
:100750002034310509F040E02091E8002E77209305
:10076000E800CFCF44914093F100319601972F5F7D
:100770003F4FE8CF8091A501882341F0853041F0BB
:100780008091E80083FFC1CF81E0089582E0089561
:1007900083E00895982F953028F08F708093E900BA
:1007A00081E008959093E900242F762F50E0981768
:1007B00031F07091EC002091ED005091F00021FD9E
:1007C00002C09F5FE8CF3091EB003E7F3093EB009B
:1007D0003091ED003D7F3093ED003091EB003160C2
:1007E0003093EB007093EC002093ED005093F000F9
:1007F0002091EE0027FDE5CF80E008958091A601CD
:1008000087FF13C08091E80082FF06C08091E80056
:100810008B778093E80004C08091A5018111F2CF0D
:1008200008958091A5018823D9F38091E80080FF85
:10083000F8CF8091E8008E77ECCF2091E4003091E2
:10084000E50095E6A9012091EC00822F817020FF40
:1008500006C08091E80080FF06C080E008952091E6
:10086000E80022FD1AC08091A501882389F0853017
:1008700089F08091EB0085FD0FC02091E40030915C
:10088000E50042175307F9F29150E1F684E008952C
:1008900082E0089583E0089581E0089541D043D037
:1008A0008091D8008F778093D8008091D80080689D
:1008B0008093D8008091D8008F7D8093D80084E009
:1008C00089BD86E089BD09B400FEFDCF1092A50167
:1008D0001092A1011092A3011092A20142E360E0E4
:1008E00080E058DF8091E1008E7F8093E10080916D
:1008F000E20081608093E2008091E2008860809352
:10090000E2008091E0008E7F8093E0000895E3E6AE
:10091000F0E080818E7F808381E08093A401BECF50
:100920001092E20008951092E10008951F920F9234
:100930000FB60F9211242F933F934F935F936F93B2
:100940007F938F939F93AF93BF93EF93FF93809188
:10095000E10082FF0AC08091E20082FF06C0809120
:10096000E1008B7F8093E100DFD18091E10080FF87
:1009700017C08091E20080FF13C08091E2008E7F5B
:100980008093E2008091E20080618093E200809198
:10099000D80080628093D80019BC1092A5010CDCAD
:1009A0008091E10084FF27C08091E20084FF23C092
:1009B00084E089BD86E089BD09B400FEFDCF809149
:1009C000D8008F7D8093D8008091E1008F7E809346
:1009D000E1008091E2008F7E8093E2008091E2004E
:1009E00081608093E2008091A1018823D9F184E0A5
:1009F0008093A501E0DB8091E10083FF22C080911C
:100A0000E20083FF1EC08091E100877F8093E100B8
:100A100082E08093A5011092A1018091E1008E7F78
:100A20008093E1008091E2008E7F8093E2008091CC
:100A3000E20080618093E20042E360E080E0AADEB1
:100A400073D1FF91EF91BF91AF919F918F917F9162
:100A50006F915F914F913F912F910F900FBE0F902B
:100A60001F9018958091E30087FD02C081E0C0CF00
:100A700083E0BECF1F93CF93DF93CDB7DEB7AA97A6
:100A80000FB6F894DEBF0FBECDBF86EA91E0FC0141
:100A900001962091F100208321E08E3A9207B9F768
:100AA00094DB8091E80083FF10C08091A6019091B3
:100AB000A701953009F4C2C000F5292F2D7F213000
:100AC00009F489C0992309F45EC08091E80083FF8E
:100AD0000AC08091E800877F8093E8008091EB0056
:100AE00080628093EB00AA960FB6F894DEBF0FBE2B
:100AF000CDBFDF91CF911F910895983009F4D5C0F3
:100B0000993009F4DFC0963001F780588230E8F65A
:100B10008091A8019091A9018C3D23E0920709F0F2
:100B2000AFC083E08A838AE289834FB7F894DE01FD
:100B3000139620E03EE051E2E32FF0E0509357009F
:100B4000E49120FF03C0E295EF703F5FEF708E2FBE
:100B500090E0EA3008F492C0C7968D939D932F5F82
:100B6000243151F74FBF8091E800877F8093E800E0
:100B70006AE270E0CE0101965ADD8091E8008B7741
:100B80008093E800A2CF803899F0823809F09DCF99
:100B90008091AA018F70853008F097CF8093E9008B
:100BA0008091EB0085FB882780F91092E90006C050
:100BB0008091A2019091A301911182609091E8002F
:100BC000977F9093E8008093F1001092F10080915C
:100BD000E8008E77A5C0882309F492C0823009F01E
:100BE00074CF8091A801811196C08091AA018F7065
:100BF0002FEF280F243008F068CF8093E900209170
:100C0000EB0020FF88C0933031F48091EB008062CC
:100C10008093EB0080C09091EB0090619093EB008B
:100C200021E030E001C0220F8A95EAF72093EA0024
:100C30001092EA008091EB008860EACF811145CFE5
:100C40001091A8011F778091E3008078812B809319
:100C5000E3008091E800877F8093E800CFDD8091FA
:100C6000E80080FFFCCF8091E30080688093E30080
:100C700082E0111183E08093A50127CFC0966DCF4C
:100C80006091AA017091AB01AE014F5F5F4FF2DB43
:100C9000BC01892B09F419CF8091E800877F8093EC
:100CA000E80089819A811CDD68CF803809F00DCF7A
:100CB0008091E800877F8093E8008091A101809374
:100CC000F10085CF811101CF9091A801923008F0F9
:100CD000FCCE8091E800877F8093E8009093A1018B
:100CE0008DDD8091A101882311F084E005C0809101
:100CF000E30087FDFACF81E08093A5015EDAE5CEBF
:100D00008091A801813009F0E0CE81E0933009F0B4
:100D100080E08093A3011092E9008091E800877F32
:100D20008093E8006BDDD1CE0895CF938091A5012B
:100D3000882399F0C091E900CF709091EC00892F41
:100D4000817090FD80E8C82B1092E9008091E80046
:100D500083FD90DECF70C093E900CF910895002409
:100D6000552704C0080E591F880F991F009729F0B6
:100D700076956795B8F37105B9F7802D952F08958D
:040D8000F894FFCF15
:100D84000FFA001005000F96001005000F960008DA
:100D940005000FFA000605000F64000805000F6443
:100DA400000805000F64000805000F6400016400DA
:100DB4000205000805000F64000805000FC80008BC
:100DC40005000F64000805000F64000805000F64A7
:100DD400000105000F64000805000F9600080500D7
:100DE4000FC8000805000F64000C050005960004F8
:100DF400BE0A0805000FE8030805000FC80009052E
:0A0E0400000F64000C05000F6400ED
:00000001FF
