:10000000A6C00000BFC00000BDC00000BBC0000013
:10001000B9C00000B7C00000B5C00000B3C0000008
:10002000B1C00000AFC00000ADC0000025C400009A
:10003000A9C00000A7C00000A5C00000A3C0000028
:10004000A1C000009FC000009DC000009BC0000038
:1000500099C0000097C0000095C0000093C0000048
:1000600091C000008FC000008DC000008BC0000058
:1000700089C00000240350004F004B004B00450096
:100080004E00200043004F004E00540052004F002D
:100090004C004C004500520000001C0348004F007B
:1000A00052004900200043004F002E002C004C005D
:1000B000540044002E000000040309040902290032
:1000C00001010080FA090400000203000000092178
:1000D0001101000122560007050203400005070533
:1000E000810340000512010002000000400D0F9244
:1000F0000000010102000105010905A1011500250B
:100100000135004501750195100509190129108176
:100110000205012507463B0175049501651409395F
:10012000814265009501810126FF0046FF000930EC
:100130000931093209357508950481020600FF0965
:1001400020950181020A212695089102C000112400
:100150001FBECFEFD2E0DEBFCDBF11E0A0E0B1E027
:10016000E0ECFCE002C005900D92A432B107D9F793
:1001700021E0A4E2B1E001C01D92A634B207E1F78C
:100180001AD19CC53DCF84B7877F84BF0FB6F89442
:10019000A895809160008861809360001092600053
:1001A0000FBE5BC30895089542E360EC82E098D2ED
:1001B00042E361EC81E094C20895CF93DF93DC01C8
:1001C00098E0FD01292F11922A95E9F780E813960E
:1001D0008C93139714968C93149715968C9315976C
:1001E00016968C93169712969C93129780912E01D7
:1001F00090912F01181619069CF488E0E1E3F1E0D4
:1002000001900D928A95E1F780912E0190912F0136
:10021000019790932F0180932E01DF91CF91089544
:1002200080913001882369F08130B9F388E0FD01C5
:10023000A1E3B1E001900D928A95E1F782E090E0B0
:10024000E8CF8091240190912501019661F489E025
:1002500090E090932501809324018AE090E09093B0
:10026000010180930001809124019091250163E0B8
:1002700070E013D5FC01EE5FFE4F8081823109F4FE
:100280004DC0C0F58830E9F1893009F442C0E091F1
:100290002601F09127013196F0932701E093260182
:1002A0002091240130912501C90163E070E0F5D46B
:1002B000EC01CE5FDE4F89819A818E179F0708F08F
:1002C000B5CF2F5F3F4F309325012093240110922B
:1002D000270110922601809100019091010182175F
:1002E00093070CF0A3CF8FEF9FEF9093250180939E
:1002F00024019CCF833159F68D919C911197906187
:1003000004C08D919C911197846011969C938E935B
:10031000BECF8D919C9111978260F7CF8D919C916A
:1003200011978063F2CFCF93DF93CDB7DEB72897D5
:100330000FB6F894DEBF0FBECDBF80913D01843073
:1003400089F582E08093E9008091E80082FF12C085
:100350008091E80085FF09C050E040E067E070E070
:10036000CE010196BCD08111F7CF8091E8008B7748
:100370008093E80081E08093E9008091E80080FFAD
:1003800011C0CE01019619DF50E040E068E070E056
:10039000CE01019656D08111F7CF8091E8008E777B
:1003A0008093E80028960FB6F894DEBF0FBECDBF4D
:1003B000DF91CF910895E7DE7894B5DF54D4FDCF77
:1003C0009C01DA01832F992783309105B9F060F4FD
:1003D0008130910561F10297E1F489E290E02CEB24
:1003E00030E02D933C9308958132910529F1829755
:1003F00081F486E590E027EF30E0F3CFC90199273B
:10040000213061F08230910579F0E8EBF0E0892B42
:1004100039F090E080E030E020E0E3CFEAE9F0E07E
:10042000849190E09F01DDCFE4E7F0E0F9CF82E135
:1004300090E025EE30E0D5CF89E090E02EEC30E082
:10044000D0CFAF92BF92CF92DF92FF920F931F93C4
:10045000CF93DF936C01EB018A0195D1F82E8111C6
:1004600024C00115110539F0F80180819181C81B64
:10047000D90BC80ED91EB12CA12C2097B1F08091B8
:10048000E80085FD22C08091E8008E778093E80027
:10049000EAD301151105A1F0F80180819181A80E20
:1004A000B91EB182A08285E0F82E8F2DDF91CF9109
:1004B0001F910F91FF90DF90CF90BF90AF90089564
:1004C00062D18823D1F2F82EF0CFF60181916F012D
:1004D0008093F1002197FFEFAF1ABF0ACECFAF9202
:1004E000BF92CF92DF92FF920F931F93CF93DF9330
:1004F0006C01EB018A0147D1F82E811124C001154E
:10050000110539F0F80180819181C81BD90BC80E03
:10051000D91EB12CA12C2097B1F08091E80085FD67
:1005200022C08091E8008B778093E8009CD301156E
:100530001105A1F0F80180819181A80EB91EB18248
:10054000A08285E0F82E8F2DDF91CF911F910F9122
:10055000FF90DF90CF90BF90AF90089514D1882383
:10056000D1F2F82EF0CF8091F100F60181936F0166
:100570002197FFEFAF1ABF0ACECFFC01CB0120912C
:100580004401309145012617370790F0009729F470
:100590002091E8002E772093E80040E0009751F486
:1005A000411108C08091E80082FF30C080E00895CA
:1005B000C901F3CF20913D012223A1F12530A1F102
:1005C0002091E80023FD2CC02091E80022FDEACF15
:1005D0002091E80020FFE2CF2091F20030E0009768
:1005E00019F02034310558F041E02034310509F08C
:1005F00040E02091E8002E772093E800CFCF419192
:100600004093F10001972F5F3F4FE9CF80913D016B
:10061000882341F0853041F08091E80083FFC2CF0C
:1006200081E0089582E0089583E00895FC01CB0104
:1006300020914401309145012617370790F000972B
:1006400029F42091E8002E772093E80040E00097FD
:1006500051F4411108C08091E80082FF31C080E070
:100660000895C901F3CF20913D012223A9F125303E
:10067000A9F12091E80023FD2DC02091E80022FD82
:10068000EACF2091E80020FFE2CF2091F20030E095
:10069000009719F02034310558F041E0203431053D
:1006A00009F040E02091E8002E772093E800CFCFBA
:1006B00044914093F100319601972F5F3F4FE8CF6F
:1006C00080913D01882341F0853041F08091E80020
:1006D00083FFC1CF81E0089582E0089583E008950B
:1006E000982F953028F08F708093E90081E008956D
:1006F0009093E900242F762F50E0981731F07091F5
:10070000EC002091ED005091F00021FD02C09F5FB0
:10071000E8CF3091EB003E7F3093EB003091ED005D
:100720003D7F3093ED003091EB0031603093EB0072
:100730007093EC002093ED005093F0002091EE00B8
:1007400027FDE5CF80E0089580913E0187FF13C02B
:100750008091E80082FF06C08091E8008B7780934B
:10076000E80004C080913D018111F2CF089580918D
:100770003D018823D9F38091E80080FFF8CF809174
:10078000E8008E77ECCF2091E4003091E50095E60B
:10079000A9012091EC00822F817020FF06C080917A
:1007A000E80080FF06C080E008952091E80022FD67
:1007B0001AC080913D01882389F0853089F08091AD
:1007C000EB0085FD0FC02091E4003091E500421759
:1007D0005307F9F29150E1F684E0089582E008951C
:1007E00083E0089581E0089541D043D08091D800FE
:1007F0008F778093D8008091D80080688093D8004C
:100800008091D8008F7D8093D80084E089BD86E0F8
:1008100089BD09B400FEFDCF10923D01109239014F
:1008200010923B0110923A0142E360E080E058DF11
:100830008091E1008E7F8093E1008091E2008160F1
:100840008093E2008091E20088608093E2008091D2
:10085000E0008E7F8093E0000895E3E6F0E0808181
:100860008E7F808381E080933C01BECF1092E200B6
:1008700008951092E10008951F920F920FB60F9203
:1008800011242F933F934F935F936F937F938F9395
:100890009F93AF93BF93EF93FF938091E10082FF0B
:1008A0000AC08091E20082FF06C08091E1008B7F48
:1008B0008093E100D7D18091E10080FF17C0809143
:1008C000E20080FF13C08091E2008E7F8093E200FF
:1008D0008091E20080618093E2008091D800806284
:1008E0008093D80019BC10923D015DDC8091E1003D
:1008F00084FF27C08091E20084FF23C084E089BD8B
:1009000086E089BD09B400FEFDCF8091D8008F7DBF
:100910008093D8008091E1008F7E8093E1008091E8
:10092000E2008F7E8093E2008091E20081608093FC
:10093000E200809139018823D9F184E080933D0160
:1009400031DC8091E10083FF22C08091E20083FFCF
:100950001EC08091E100877F8093E10082E0809358
:100960003D01109239018091E1008E7F8093E1007A
:100970008091E2008E7F8093E2008091E2008061AE
:100980008093E20042E360E080E0AADE6BD1FF9159
:10099000EF91BF91AF919F918F917F916F915F91F7
:1009A0004F913F912F910F900FBE0F901F90189570
:1009B0008091E30087FD02C081E0C0CF83E0BECF1D
:1009C0001F93CF93DF93CDB7DEB7AA970FB6F894F6
:1009D000DEBF0FBECDBF8EE391E0FC0101962091FA
:1009E000F100208321E086349207B9F7E5DB80919E
:1009F000E80083FF10C080913E0190913F01953047
:100A000009F4BCC000F5292F2D7F213009F486C0E0
:100A1000992309F45EC08091E80083FF0AC08091A9
:100A2000E800877F8093E8008091EB0080628093EC
:100A3000EB00AA960FB6F894DEBF0FBECDBFDF91D4
:100A4000CF911F910895983009F4CDC0993009F4E1
:100A5000D7C0963001F780588230E8F68091400187
:100A6000909141018C3D23E0920709F0A9C083E0F9
:100A70008A838AE289834FB7F894DE01139620E0D7
:100A80003EE051E2E32FF0E050935700E49120FF65
:100A900003C0E295EF703F5FEF708E2F90E0EA3079
:100AA00008F48CC0C7968D939D932F5F243151F726
:100AB0004FBF8091E800877F8093E8006AE270E092
:100AC000CE0101965ADD8091E8008B778093E80093
:100AD000A2CF803881F0823809F09DCF8091420109
:100AE0008F708093E9008091EB0085FB882780F967
:100AF0001092E90006C080913A0190913B0191115A
:100B000082609091E800977F9093E8008093F100D5
:100B10001092F1008091E8008E77A0C0882309F43C
:100B20008DC0823009F077CF80914001811191C052
:100B3000809142018F7009F46ECF8093E90020917B
:100B4000EB0020FF86C0933031F48091EB0080628F
:100B50008093EB007EC09091EB0090619093EB004E
:100B600021E030E001C0220F8A95EAF72093EA00E5
:100B70001092EA008091EB008860EACF81114BCFA0
:100B8000109140011F778091E3008078812B809342
:100B9000E3008091E800877F8093E800D5DD8091B5
:100BA000E80080FFFCCF8091E30080688093E30041
:100BB00082E0111183E080933D012DCFC09673CF69
:100BC000AE014F5F5F4F60914201FADBBC01892BA0
:100BD00009F421CF8091E800877F8093E800898124
:100BE0009A8124DD70CF803809F015CF8091E8001C
:100BF000877F8093E800809139018093F1008ACF4C
:100C0000811109CF90914001923008F004CF80917A
:100C1000E800877F8093E8009093390195DD80910B
:100C20003901882311F084E005C08091E30087FD3D
:100C3000FACF81E080933D01B7DAEDCE809140019B
:100C4000813009F0E8CE81E0933009F080E08093B4
:100C50003B011092E9008091E800877F8093E800D3
:100C600073DDD9CE0895CF9380913D01882399F00B
:100C7000C091E900CF709091EC00892F817090FDB8
:100C800080E8C82B1092E9008091E80083FD98DE8F
:100C9000CF70C093E900CF9108950024552704C078
:100CA000080E591F880F991F009729F076956795B0
:100CB000B8F37105B9F7802D952F0895F894FFCFFB
:100CC0000800151E00120100151E0008010015285D
:100CD00000090100152800130100153C000801005F
:040CE00015010000FA
:00000001FF
