:10000000A6C00000BFC00000BDC00000BBC0000013
:10001000B9C00000B7C00000B5C00000B3C0000008
:10002000B1C00000AFC00000ADC000007FC4000040
:10003000A9C00000A7C00000A5C00000A3C0000028
:10004000A1C000009FC000009DC000009BC0000038
:1000500099C0000097C0000095C0000093C0000048
:1000600091C000008FC000008DC000008BC0000058
:1000700089C00000240350004F004B004B00450096
:100080004E00200043004F004E00540052004F002D
:100090004C004C004500520000001C0348004F007B
:1000A00052004900200043004F002E002C004C005D
:1000B000540044002E000000040309040902290032
:1000C00001010080FA090400000203000000092178
:1000D0001101000122560007050203400005070533
:1000E000810340000512010002000000400D0F9244
:1000F0000000010102000105010905A1011500250B
:100100000135004501750195100509190129108176
:100110000205012507463B0175049501651409395F
:10012000814265009501810126FF0046FF000930EC
:100130000931093209357508950481020600FF0965
:1001400020950181020A212695089102C000112400
:100150001FBECFEFD2E0DEBFCDBF11E0A0E0B1E027
:10016000E4E7FDE002C005900D92AA3DB107D9F782
:1001700021E0AAEDB1E001C01D92AE3FB207E1F768
:1001800074D1F6C53DCF84B7877F84BF0FB6F8948E
:10019000A895809160008861809360001092600053
:1001A0000FBEB5C30895089542E360EC82E0F2D239
:1001B00042E361EC81E0EEC20895CF93DF93DC016E
:1001C00098E0FD01292F11922A95E9F780E813960E
:1001D0008C93139714968C93149715968C9315976C
:1001E00016968C93169712969C9312978091E6011F
:1001F0009091E701181619069CF488E0E9EEF1E009
:1002000001900D928A95E1F78091E6019091E701C6
:1002100001979093E7018093E601DF91CF910895D4
:100220008091E801882369F08130B9F388E0FD010D
:10023000A9EEB1E001900D928A95E1F782E090E09D
:10024000E8CF8091DC019091DD010196E1F480918D
:10025000DA019091DB0120910001309101018217B8
:10026000930709F05EC081E490E09093DD018093F4
:10027000DC0186E490E090930301809302011092E8
:10028000DB011092DA018091DC019091DD0163E0E5
:1002900070E05DD5FC01EC5FFE4F8081873009F492
:1002A00088C008F05DC0823009F475C008F04BC00A
:1002B000882309F46CC0813009F471C0E091DE013B
:1002C000F091DF013196F093DF01E093DE012091A0
:1002D000DC013091DD01C90163E070E038D5EC014B
:1002E000CC5FDE4F89819A818E179F0708F09ECFE1
:1002F0002F5F3F4F3093DD012093DC011092DF012F
:100300001092DE0180910201909103018217930700
:100310000CF08CCF8FEF9FEF9093DD018093DC0189
:1003200085CF29E030E03093DD012093DC0120E42B
:1003300030E0309303012093020101969093DB019A
:100340008093DA01A0CF833079F1863009F0B6CFFF
:100350008D919C911197886011969C938E93AECF4E
:100360008B3089F150F4883049F1893009F0A6CFFB
:100370008D919C9111978260EFCF823149F1833149
:1003800009F09CCF8D919C9111979061E5CF1496C7
:100390001C92149793CF13961C9213978FCF8FEFC5
:1003A00014968C9314978ACF8FEF13968C93139790
:1003B00085CF8D919C9111978160CECF8D919C912D
:1003C00011978460C9CF8D919C9111978062C4CFA1
:1003D0008D919C9111978063BFCFCF93DF93CDB761
:1003E000DEB728970FB6F894DEBF0FBECDBF809161
:1003F000F501843089F582E08093E9008091E8007E
:1004000082FF12C08091E80085FF09C050E040E003
:1004100067E070E0CE010196BCD08111F7CF8091EA
:10042000E8008B778093E80081E08093E900809179
:10043000E80080FF11C0CE010196BFDE50E040E031
:1004400068E070E0CE01019656D08111F7CF80911F
:10045000E8008E778093E80028960FB6F894DEBF08
:100460000FBECDBFDF91CF9108958DDE7894B5DFBB
:1004700054D4FDCF9C01DA01832F99278330910555
:10048000B9F060F48130910561F10297E1F489E2FD
:1004900090E02CEB30E02D933C9308958132910550
:1004A00029F1829781F486E590E027EF30E0F3CFE1
:1004B000C9019927213061F08230910579F0E8EB8C
:1004C000F0E0892B39F090E080E030E020E0E3CFED
:1004D000EAE9F0E0849190E09F01DDCFE4E7F0E00D
:1004E000F9CF82E190E025EE30E0D5CF89E090E0D1
:1004F0002EEC30E0D0CFAF92BF92CF92DF92FF923E
:100500000F931F93CF93DF936C01EB018A0195D179
:10051000F82E811124C00115110539F0F8018081F0
:100520009181C81BD90BC80ED91EB12CA12C2097C4
:10053000B1F08091E80085FD22C08091E8008E77BF
:100540008093E800EAD301151105A1F0F80180813C
:100550009181A80EB91EB182A08285E0F82E8F2D60
:10056000DF91CF911F910F91FF90DF90CF90BF90BF
:10057000AF90089562D18823D1F2F82EF0CFF60122
:1005800081916F018093F1002197FFEFAF1ABF0AAD
:10059000CECFAF92BF92CF92DF92FF920F931F9375
:1005A000CF93DF936C01EB018A0147D1F82E8111C3
:1005B00024C00115110539F0F80180819181C81B13
:1005C000D90BC80ED91EB12CA12C2097B1F0809167
:1005D000E80085FD22C08091E8008B778093E800D9
:1005E0009CD301151105A1F0F80180819181A80E1D
:1005F000B91EB182A08285E0F82E8F2DDF91CF91B8
:100600001F910F91FF90DF90CF90BF90AF90089512
:1006100014D18823D1F2F82EF0CF8091F100F601A9
:1006200081936F012197FFEFAF1ABF0ACECFFC0174
:10063000CB012091FC013091FD012617370790F086
:10064000009729F42091E8002E772093E80040E0FD
:10065000009751F4411108C08091E80082FF30C03A
:1006600080E00895C901F3CF2091F5012223A1F183
:100670002530A1F12091E80023FD2CC02091E80055
:1006800022FDEACF2091E80020FFE2CF2091F20086
:1006900030E0009719F02034310558F041E0203463
:1006A000310509F040E02091E8002E772093E80022
:1006B000CFCF41914093F10001972F5F3F4FE9CF9A
:1006C0008091F501882341F0853041F08091E80068
:1006D00083FFC2CF81E0089582E0089583E008950A
:1006E000FC01CB012091FC013091FD012617370759
:1006F00090F0009729F42091E8002E772093E800ED
:1007000040E0009751F4411108C08091E80082FF59
:1007100031C080E00895C901F3CF2091F501222373
:10072000A9F12530A9F12091E80023FD2DC02091E9
:10073000E80022FDEACF2091E80020FFE2CF2091DF
:10074000F20030E0009719F02034310558F041E014
:100750002034310509F040E02091E8002E77209305
:10076000E800CFCF44914093F100319601972F5F7D
:100770003F4FE8CF8091F501882341F0853041F06B
:100780008091E80083FFC1CF81E0089582E0089561
:1007900083E00895982F953028F08F708093E900BA
:1007A00081E008959093E900242F762F50E0981768
:1007B00031F07091EC002091ED005091F00021FD9E
:1007C00002C09F5FE8CF3091EB003E7F3093EB009B
:1007D0003091ED003D7F3093ED003091EB003160C2
:1007E0003093EB007093EC002093ED005093F000F9
:1007F0002091EE0027FDE5CF80E008958091F6017D
:1008000087FF13C08091E80082FF06C08091E80056
:100810008B778093E80004C08091F5018111F2CFBD
:1008200008958091F5018823D9F38091E80080FF35
:10083000F8CF8091E8008E77ECCF2091E4003091E2
:10084000E50095E6A9012091EC00822F817020FF40
:1008500006C08091E80080FF06C080E008952091E6
:10086000E80022FD1AC08091F501882389F08530C7
:1008700089F08091EB0085FD0FC02091E40030915C
:10088000E50042175307F9F29150E1F684E008952C
:1008900082E0089583E0089581E0089541D043D037
:1008A0008091D8008F778093D8008091D80080689D
:1008B0008093D8008091D8008F7D8093D80084E009
:1008C00089BD86E089BD09B400FEFDCF1092F50117
:1008D0001092F1011092F3011092F20142E360E0F4
:1008E00080E058DF8091E1008E7F8093E10080916D
:1008F000E20081608093E2008091E2008860809352
:10090000E2008091E0008E7F8093E0000895E3E6AE
:10091000F0E080818E7F808381E08093F401BECF00
:100920001092E20008951092E10008951F920F9234
:100930000FB60F9211242F933F934F935F936F93B2
:100940007F938F939F93AF93BF93EF93FF93809188
:10095000E10082FF0AC08091E20082FF06C0809120
:10096000E1008B7F8093E100D7D18091E10080FF8F
:1009700017C08091E20080FF13C08091E2008E7F5B
:100980008093E2008091E20080618093E200809198
:10099000D80080628093D80019BC1092F50103DC66
:1009A0008091E10084FF27C08091E20084FF23C092
:1009B00084E089BD86E089BD09B400FEFDCF809149
:1009C000D8008F7D8093D8008091E1008F7E809346
:1009D000E1008091E2008F7E8093E2008091E2004E
:1009E00081608093E2008091F1018823D9F184E055
:1009F0008093F501D7DB8091E10083FF22C08091D5
:100A0000E20083FF1EC08091E100877F8093E100B8
:100A100082E08093F5011092F1018091E1008E7FD8
:100A20008093E1008091E2008E7F8093E2008091CC
:100A3000E20080618093E20042E360E080E0AADEB1
:100A40006BD1FF91EF91BF91AF919F918F917F916A
:100A50006F915F914F913F912F910F900FBE0F902B
:100A60001F9018958091E30087FD02C081E0C0CF00
:100A700083E0BECF1F93CF93DF93CDB7DEB7AA97A6
:100A80000FB6F894DEBF0FBECDBF86EF91E0FC013C
:100A900001962091F100208321E08E3F9207B9F763
:100AA0008BDB8091E80083FF10C08091F60190916C
:100AB000F701953009F4BCC000F5292F2D7F2130B6
:100AC00009F486C0992309F45EC08091E80083FF91
:100AD0000AC08091E800877F8093E8008091EB0056
:100AE00080628093EB00AA960FB6F894DEBF0FBE2B
:100AF000CDBFDF91CF911F910895983009F4CDC0FB
:100B0000993009F4D7C0963001F780588230E8F662
:100B10008091F8019091F9018C3D23E0920709F052
:100B2000A9C083E08A838AE289834FB7F894DE0103
:100B3000139620E03EE051E2E32FF0E0509357009F
:100B4000E49120FF03C0E295EF703F5FEF708E2FBE
:100B500090E0EA3008F48CC0C7968D939D932F5F88
:100B6000243151F74FBF8091E800877F8093E800E0
:100B70006AE270E0CE0101965ADD8091E8008B7741
:100B80008093E800A2CF803881F0823809F09DCFB1
:100B90008091FA018F708093E9008091EB0085FBD2
:100BA000882780F91092E90006C08091F2019091A7
:100BB000F301911182609091E800977F9093E80093
:100BC0008093F1001092F1008091E8008E77A0C030
:100BD000882309F48DC0823009F077CF8091F80125
:100BE000811191C08091FA018F7009F46ECF8093CA
:100BF000E9002091EB0020FF86C0933031F4809112
:100C0000EB0080628093EB007EC09091EB009061DE
:100C10009093EB0021E030E001C0220F8A95EAF7C3
:100C20002093EA001092EA008091EB008860EACFFE
:100C300081114BCF1091F8011F778091E3008078EC
:100C4000812B8093E3008091E800877F8093E80008
:100C5000D5DD8091E80080FFFCCF8091E3008068C3
:100C60008093E30082E0111183E08093F5012DCFA2
:100C7000C09673CFAE014F5F5F4F6091FA01FADB10
:100C8000BC01892B09F421CF8091E800877F8093F4
:100C9000E80089819A8124DD70CF803809F015CF72
:100CA0008091E800877F8093E8008091F101809334
:100CB000F1008ACF811109CF9091F801923008F0AC
:100CC00004CF8091E800877F8093E8009093F10142
:100CD00095DD8091F101882311F084E005C08091B9
:100CE000E30087FDFACF81E08093F5015DDAEDCE78
:100CF0008091F801813009F0E8CE81E0933009F06D
:100D000080E08093F3011092E9008091E800877FF2
:100D10008093E80073DDD9CE0895CF938091F501DB
:100D2000882399F0C091E900CF709091EC00892F51
:100D3000817090FD80E8C82B1092E9008091E80056
:100D400083FD98DECF70C093E900CF910895002411
:100D5000552704C0080E591F880F991F009729F0C6
:100D600076956795B8F37105B9F7802D952F08959D
:040D7000F894FFCF25
:100D740032000800151E00120100151E00080100B3
:100D8400152800090100152800130100153C001363
:100D94000100151E000101001501000301001501E9
:100DA4000003010015010003010015010003010007
:100DB400150100080100150100015000150100088B
:100DC40001001501000101001501000101001501D8
:100DD40000010100150100010100150100080100D6
:100DE4001508000801001504000801001508000199
:100DF400010015010001010015010008010015079B
:100E040000000100150100031C0015010008010089
:100E1400150400130100151E00130100151E00081F
:100E24000C00150100090600150100091E0015013A
:100E3400000901001532000601001514000B010021
:0A0E4400153200080100158C0000B3
:00000001FF
